{
  "_format": "hh-sol-artifact-1",
  "contractName": "DynamicSvgNft",
  "sourceName": "contracts/DynamicSvgNft.sol",
  "abi": [
    {
      "inputs": [
        {
          "internalType": "address",
          "name": "priceFeedAddress",
          "type": "address"
        },
        {
          "internalType": "string",
          "name": "lowSvg",
          "type": "string"
        },
        {
          "internalType": "string",
          "name": "highSvg",
          "type": "string"
        }
      ],
      "stateMutability": "nonpayable",
      "type": "constructor"
    },
    {
      "anonymous": false,
      "inputs": [
        {
          "indexed": true,
          "internalType": "address",
          "name": "owner",
          "type": "address"
        },
        {
          "indexed": true,
          "internalType": "address",
          "name": "approved",
          "type": "address"
        },
        {
          "indexed": true,
          "internalType": "uint256",
          "name": "tokenId",
          "type": "uint256"
        }
      ],
      "name": "Approval",
      "type": "event"
    },
    {
      "anonymous": false,
      "inputs": [
        {
          "indexed": true,
          "internalType": "address",
          "name": "owner",
          "type": "address"
        },
        {
          "indexed": true,
          "internalType": "address",
          "name": "operator",
          "type": "address"
        },
        {
          "indexed": false,
          "internalType": "bool",
          "name": "approved",
          "type": "bool"
        }
      ],
      "name": "ApprovalForAll",
      "type": "event"
    },
    {
      "anonymous": false,
      "inputs": [
        {
          "indexed": true,
          "internalType": "uint256",
          "name": "tokenId",
          "type": "uint256"
        },
        {
          "indexed": false,
          "internalType": "int256",
          "name": "highValue",
          "type": "int256"
        }
      ],
      "name": "CreatedNFT",
      "type": "event"
    },
    {
      "anonymous": false,
      "inputs": [
        {
          "indexed": true,
          "internalType": "address",
          "name": "from",
          "type": "address"
        },
        {
          "indexed": true,
          "internalType": "address",
          "name": "to",
          "type": "address"
        },
        {
          "indexed": true,
          "internalType": "uint256",
          "name": "tokenId",
          "type": "uint256"
        }
      ],
      "name": "Transfer",
      "type": "event"
    },
    {
      "inputs": [
        {
          "internalType": "address",
          "name": "to",
          "type": "address"
        },
        {
          "internalType": "uint256",
          "name": "tokenId",
          "type": "uint256"
        }
      ],
      "name": "approve",
      "outputs": [],
      "stateMutability": "nonpayable",
      "type": "function"
    },
    {
      "inputs": [
        {
          "internalType": "address",
          "name": "owner",
          "type": "address"
        }
      ],
      "name": "balanceOf",
      "outputs": [
        {
          "internalType": "uint256",
          "name": "",
          "type": "uint256"
        }
      ],
      "stateMutability": "view",
      "type": "function"
    },
    {
      "inputs": [
        {
          "internalType": "uint256",
          "name": "tokenId",
          "type": "uint256"
        }
      ],
      "name": "getApproved",
      "outputs": [
        {
          "internalType": "address",
          "name": "",
          "type": "address"
        }
      ],
      "stateMutability": "view",
      "type": "function"
    },
    {
      "inputs": [
        {
          "internalType": "address",
          "name": "owner",
          "type": "address"
        },
        {
          "internalType": "address",
          "name": "operator",
          "type": "address"
        }
      ],
      "name": "isApprovedForAll",
      "outputs": [
        {
          "internalType": "bool",
          "name": "",
          "type": "bool"
        }
      ],
      "stateMutability": "view",
      "type": "function"
    },
    {
      "inputs": [
        {
          "internalType": "int256",
          "name": "highValue",
          "type": "int256"
        }
      ],
      "name": "mintNft",
      "outputs": [],
      "stateMutability": "nonpayable",
      "type": "function"
    },
    {
      "inputs": [],
      "name": "name",
      "outputs": [
        {
          "internalType": "string",
          "name": "",
          "type": "string"
        }
      ],
      "stateMutability": "view",
      "type": "function"
    },
    {
      "inputs": [
        {
          "internalType": "uint256",
          "name": "tokenId",
          "type": "uint256"
        }
      ],
      "name": "ownerOf",
      "outputs": [
        {
          "internalType": "address",
          "name": "",
          "type": "address"
        }
      ],
      "stateMutability": "view",
      "type": "function"
    },
    {
      "inputs": [
        {
          "internalType": "uint256",
          "name": "",
          "type": "uint256"
        }
      ],
      "name": "s_tokenIdToHighValue",
      "outputs": [
        {
          "internalType": "int256",
          "name": "",
          "type": "int256"
        }
      ],
      "stateMutability": "view",
      "type": "function"
    },
    {
      "inputs": [
        {
          "internalType": "address",
          "name": "from",
          "type": "address"
        },
        {
          "internalType": "address",
          "name": "to",
          "type": "address"
        },
        {
          "internalType": "uint256",
          "name": "tokenId",
          "type": "uint256"
        }
      ],
      "name": "safeTransferFrom",
      "outputs": [],
      "stateMutability": "nonpayable",
      "type": "function"
    },
    {
      "inputs": [
        {
          "internalType": "address",
          "name": "from",
          "type": "address"
        },
        {
          "internalType": "address",
          "name": "to",
          "type": "address"
        },
        {
          "internalType": "uint256",
          "name": "tokenId",
          "type": "uint256"
        },
        {
          "internalType": "bytes",
          "name": "data",
          "type": "bytes"
        }
      ],
      "name": "safeTransferFrom",
      "outputs": [],
      "stateMutability": "nonpayable",
      "type": "function"
    },
    {
      "inputs": [
        {
          "internalType": "address",
          "name": "operator",
          "type": "address"
        },
        {
          "internalType": "bool",
          "name": "approved",
          "type": "bool"
        }
      ],
      "name": "setApprovalForAll",
      "outputs": [],
      "stateMutability": "nonpayable",
      "type": "function"
    },
    {
      "inputs": [
        {
          "internalType": "bytes4",
          "name": "interfaceId",
          "type": "bytes4"
        }
      ],
      "name": "supportsInterface",
      "outputs": [
        {
          "internalType": "bool",
          "name": "",
          "type": "bool"
        }
      ],
      "stateMutability": "view",
      "type": "function"
    },
    {
      "inputs": [
        {
          "internalType": "string",
          "name": "svg",
          "type": "string"
        }
      ],
      "name": "svgToImageURI",
      "outputs": [
        {
          "internalType": "string",
          "name": "",
          "type": "string"
        }
      ],
      "stateMutability": "pure",
      "type": "function"
    },
    {
      "inputs": [],
      "name": "symbol",
      "outputs": [
        {
          "internalType": "string",
          "name": "",
          "type": "string"
        }
      ],
      "stateMutability": "view",
      "type": "function"
    },
    {
      "inputs": [
        {
          "internalType": "uint256",
          "name": "tokenId",
          "type": "uint256"
        }
      ],
      "name": "tokenURI",
      "outputs": [
        {
          "internalType": "string",
          "name": "",
          "type": "string"
        }
      ],
      "stateMutability": "view",
      "type": "function"
    },
    {
      "inputs": [
        {
          "internalType": "address",
          "name": "from",
          "type": "address"
        },
        {
          "internalType": "address",
          "name": "to",
          "type": "address"
        },
        {
          "internalType": "uint256",
          "name": "tokenId",
          "type": "uint256"
        }
      ],
      "name": "transferFrom",
      "outputs": [],
      "stateMutability": "nonpayable",
      "type": "function"
    }
  ],
  "bytecode": "0x60a06040523480156200001157600080fd5b506040516200375f3803806200375f83398181016040528101906200003791906200064c565b6040518060400160405280600f81526020017f44796e616d696320535647204e465400000000000000000000000000000000008152506040518060400160405280600381526020017f44534e00000000000000000000000000000000000000000000000000000000008152508160009080519060200190620000bb9291906200039a565b508060019080519060200190620000d49291906200039a565b5050506000600681905550620000f0826200016e60201b60201c565b60079080519060200190620001079291906200039a565b5062000119816200016e60201b60201c565b60089080519060200190620001309291906200039a565b508273ffffffffffffffffffffffffffffffffffffffff1660808173ffffffffffffffffffffffffffffffffffffffff168152505050505062000937565b60606000620001a98360405160200162000189919062000733565b6040516020818303038152906040526200020c60201b62000d611760201c565b90506040518060400160405280601a81526020017f646174613a696d6167652f7376672b786d6c3b6261736536342c00000000000081525081604051602001620001f59291906200074c565b604051602081830303815290604052915050919050565b6060600082511415620002315760405180602001604052806000815250905062000395565b60006040518060600160405280604081526020016200371f6040913990506000600360028551620002639190620007ad565b6200026f919062000839565b60046200027d919062000871565b90506000602082620002909190620007ad565b67ffffffffffffffff811115620002ac57620002ab620004de565b5b6040519080825280601f01601f191660200182016040528015620002df5781602001600182028036833780820191505090505b509050818152600183018586518101602084015b8183101562000350576003830192508251603f8160121c168501518253600182019150603f81600c1c168501518253600182019150603f8160061c168501518253600182019150603f8116850151825360018201915050620002f3565b6003895106600181146200036d57600281146200037e5762000389565b613d3d60f01b600283035262000389565b603d60f81b60018303525b50505050508093505050505b919050565b828054620003a89062000901565b90600052602060002090601f016020900481019282620003cc576000855562000418565b82601f10620003e757805160ff191683800117855562000418565b8280016001018555821562000418579182015b8281111562000417578251825591602001919060010190620003fa565b5b5090506200042791906200042b565b5090565b5b80821115620004465760008160009055506001016200042c565b5090565b6000604051905090565b600080fd5b600080fd5b600073ffffffffffffffffffffffffffffffffffffffff82169050919050565b60006200048b826200045e565b9050919050565b6200049d816200047e565b8114620004a957600080fd5b50565b600081519050620004bd8162000492565b92915050565b600080fd5b600080fd5b6000601f19601f8301169050919050565b7f4e487b7100000000000000000000000000000000000000000000000000000000600052604160045260246000fd5b6200051882620004cd565b810181811067ffffffffffffffff821117156200053a5762000539620004de565b5b80604052505050565b60006200054f6200044a565b90506200055d82826200050d565b919050565b600067ffffffffffffffff82111562000580576200057f620004de565b5b6200058b82620004cd565b9050602081019050919050565b60005b83811015620005b85780820151818401526020810190506200059b565b83811115620005c8576000848401525b50505050565b6000620005e5620005df8462000562565b62000543565b905082815260208101848484011115620006045762000603620004c8565b5b6200061184828562000598565b509392505050565b600082601f830112620006315762000630620004c3565b5b815162000643848260208601620005ce565b91505092915050565b60008060006060848603121562000668576200066762000454565b5b60006200067886828701620004ac565b935050602084015167ffffffffffffffff8111156200069c576200069b62000459565b5b620006aa8682870162000619565b925050604084015167ffffffffffffffff811115620006ce57620006cd62000459565b5b620006dc8682870162000619565b9150509250925092565b600081519050919050565b600081905092915050565b60006200070982620006e6565b620007158185620006f1565b93506200072781856020860162000598565b80840191505092915050565b6000620007418284620006fc565b915081905092915050565b60006200075a8285620006fc565b9150620007688284620006fc565b91508190509392505050565b6000819050919050565b7f4e487b7100000000000000000000000000000000000000000000000000000000600052601160045260246000fd5b6000620007ba8262000774565b9150620007c78362000774565b9250827fffffffffffffffffffffffffffffffffffffffffffffffffffffffffffffffff03821115620007ff57620007fe6200077e565b5b828201905092915050565b7f4e487b7100000000000000000000000000000000000000000000000000000000600052601260045260246000fd5b6000620008468262000774565b9150620008538362000774565b9250826200086657620008656200080a565b5b828204905092915050565b60006200087e8262000774565b91506200088b8362000774565b9250817fffffffffffffffffffffffffffffffffffffffffffffffffffffffffffffffff0483118215151615620008c757620008c66200077e565b5b828202905092915050565b7f4e487b7100000000000000000000000000000000000000000000000000000000600052602260045260246000fd5b600060028204905060018216806200091a57607f821691505b60208210811415620009315762000930620008d2565b5b50919050565b608051612dcc620009536000396000610a7a0152612dcc6000f3fe608060405234801561001057600080fd5b50600436106101005760003560e01c80636352211e11610097578063b88d4fde11610066578063b88d4fde146102bd578063c87b56dd146102d9578063e425aded14610309578063e985e9c51461033957610100565b80636352211e1461022357806370a082311461025357806395d89b4114610283578063a22cb465146102a157610100565b80631e930812116100d35780631e9308121461019f57806323b872dd146101bb57806330d871c6146101d757806342842e0e1461020757610100565b806301ffc9a71461010557806306fdde0314610135578063081812fc14610153578063095ea7b314610183575b600080fd5b61011f600480360381019061011a9190611a41565b610369565b60405161012c9190611a89565b60405180910390f35b61013d61044b565b60405161014a9190611b3d565b60405180910390f35b61016d60048036038101906101689190611b95565b6104dd565b60405161017a9190611c03565b60405180910390f35b61019d60048036038101906101989190611c4a565b610523565b005b6101b960048036038101906101b49190611cc0565b61063b565b005b6101d560048036038101906101d09190611ced565b6106ab565b005b6101f160048036038101906101ec9190611e75565b61070b565b6040516101fe9190611b3d565b60405180910390f35b610221600480360381019061021c9190611ced565b610798565b005b61023d60048036038101906102389190611b95565b6107b8565b60405161024a9190611c03565b60405180910390f35b61026d60048036038101906102689190611ebe565b61086a565b60405161027a9190611efa565b60405180910390f35b61028b610922565b6040516102989190611b3d565b60405180910390f35b6102bb60048036038101906102b69190611f41565b6109b4565b005b6102d760048036038101906102d29190612022565b6109ca565b005b6102f360048036038101906102ee9190611b95565b610a2c565b6040516103009190611b3d565b60405180910390f35b610323600480360381019061031e9190611b95565b610cb5565b60405161033091906120b4565b60405180910390f35b610353600480360381019061034e91906120cf565b610ccd565b6040516103609190611a89565b60405180910390f35b60007f80ac58cd000000000000000000000000000000000000000000000000000000007bffffffffffffffffffffffffffffffffffffffffffffffffffffffff1916827bffffffffffffffffffffffffffffffffffffffffffffffffffffffff1916148061043457507f5b5e139f000000000000000000000000000000000000000000000000000000007bffffffffffffffffffffffffffffffffffffffffffffffffffffffff1916827bffffffffffffffffffffffffffffffffffffffffffffffffffffffff1916145b80610444575061044382610eda565b5b9050919050565b60606000805461045a9061213e565b80601f01602080910402602001604051908101604052809291908181526020018280546104869061213e565b80156104d35780601f106104a8576101008083540402835291602001916104d3565b820191906000526020600020905b8154815290600101906020018083116104b657829003601f168201915b5050505050905090565b60006104e882610f44565b6004600083815260200190815260200160002060009054906101000a900473ffffffffffffffffffffffffffffffffffffffff169050919050565b600061052e826107b8565b90508073ffffffffffffffffffffffffffffffffffffffff168373ffffffffffffffffffffffffffffffffffffffff16141561059f576040517f08c379a0000000000000000000000000000000000000000000000000000000008152600401610596906121e2565b60405180910390fd5b8073ffffffffffffffffffffffffffffffffffffffff166105be610f8f565b73ffffffffffffffffffffffffffffffffffffffff1614806105ed57506105ec816105e7610f8f565b610ccd565b5b61062c576040517f08c379a000000000000000000000000000000000000000000000000000000000815260040161062390612274565b60405180910390fd5b6106368383610f97565b505050565b80600960006006548152602001908152602001600020819055506001600681905560068190555061066e33600654611050565b6006547f882d3b5a729a8bb95cf6c0083c99b42ecd9637123d4425bd7b768877fd8af8b0826040516106a091906120b4565b60405180910390a250565b6106bc6106b6610f8f565b8261106e565b6106fb576040517f08c379a00000000000000000000000000000000000000000000000000000000081526004016106f290612306565b60405180910390fd5b610706838383611103565b505050565b60606000610737836040516020016107239190612362565b604051602081830303815290604052610d61565b90506040518060400160405280601a81526020017f646174613a696d6167652f7376672b786d6c3b6261736536342c00000000000081525081604051602001610781929190612379565b604051602081830303815290604052915050919050565b6107b3838383604051806020016040528060008152506109ca565b505050565b6000806002600084815260200190815260200160002060009054906101000a900473ffffffffffffffffffffffffffffffffffffffff169050600073ffffffffffffffffffffffffffffffffffffffff168173ffffffffffffffffffffffffffffffffffffffff161415610861576040517f08c379a0000000000000000000000000000000000000000000000000000000008152600401610858906123e9565b60405180910390fd5b80915050919050565b60008073ffffffffffffffffffffffffffffffffffffffff168273ffffffffffffffffffffffffffffffffffffffff1614156108db576040517f08c379a00000000000000000000000000000000000000000000000000000000081526004016108d29061247b565b60405180910390fd5b600360008373ffffffffffffffffffffffffffffffffffffffff1673ffffffffffffffffffffffffffffffffffffffff168152602001908152602001600020549050919050565b6060600180546109319061213e565b80601f016020809104026020016040519081016040528092919081815260200182805461095d9061213e565b80156109aa5780601f1061097f576101008083540402835291602001916109aa565b820191906000526020600020905b81548152906001019060200180831161098d57829003601f168201915b5050505050905090565b6109c66109bf610f8f565b838361136a565b5050565b6109db6109d5610f8f565b8361106e565b610a1a576040517f08c379a0000000000000000000000000000000000000000000000000000000008152600401610a1190612306565b60405180910390fd5b610a26848484846114d7565b50505050565b6060610a3782611533565b610a76576040517f08c379a0000000000000000000000000000000000000000000000000000000008152600401610a6d906124e7565b60405180910390fd5b60007f000000000000000000000000000000000000000000000000000000000000000073ffffffffffffffffffffffffffffffffffffffff1663feaf968c6040518163ffffffff1660e01b815260040160a06040518083038186803b158015610ade57600080fd5b505afa158015610af2573d6000803e3d6000fd5b505050506040513d601f19601f82011682018060405250810190610b169190612573565b505050915050600060078054610b2b9061213e565b80601f0160208091040260200160405190810160405280929190818152602001828054610b579061213e565b8015610ba45780601f10610b7957610100808354040283529160200191610ba4565b820191906000526020600020905b815481529060010190602001808311610b8757829003601f168201915b5050505050905060096000858152602001908152602001600020548212610c535760088054610bd29061213e565b80601f0160208091040260200160405190810160405280929190818152602001828054610bfe9061213e565b8015610c4b5780601f10610c2057610100808354040283529160200191610c4b565b820191906000526020600020905b815481529060010190602001808311610c2e57829003601f168201915b505050505090505b610c5b61159f565b610c8c610c6661044b565b83604051602001610c789291906127b6565b604051602081830303815290604052610d61565b604051602001610c9d929190612379565b60405160208183030381529060405292505050919050565b60096020528060005260406000206000915090505481565b6000600560008473ffffffffffffffffffffffffffffffffffffffff1673ffffffffffffffffffffffffffffffffffffffff16815260200190815260200160002060008373ffffffffffffffffffffffffffffffffffffffff1673ffffffffffffffffffffffffffffffffffffffff16815260200190815260200160002060009054906101000a900460ff16905092915050565b6060600082511415610d8457604051806020016040528060008152509050610ed5565b6000604051806060016040528060408152602001612d576040913990506000600360028551610db39190612835565b610dbd91906128ba565b6004610dc991906128eb565b90506000602082610dda9190612835565b67ffffffffffffffff811115610df357610df2611d4a565b5b6040519080825280601f01601f191660200182016040528015610e255781602001600182028036833780820191505090505b509050818152600183018586518101602084015b81831015610e94576003830192508251603f8160121c168501518253600182019150603f81600c1c168501518253600182019150603f8160061c168501518253600182019150603f8116850151825360018201915050610e39565b600389510660018114610eae5760028114610ebe57610ec9565b613d3d60f01b6002830352610ec9565b603d60f81b60018303525b50505050508093505050505b919050565b60007f01ffc9a7000000000000000000000000000000000000000000000000000000007bffffffffffffffffffffffffffffffffffffffffffffffffffffffff1916827bffffffffffffffffffffffffffffffffffffffffffffffffffffffff1916149050919050565b610f4d81611533565b610f8c576040517f08c379a0000000000000000000000000000000000000000000000000000000008152600401610f83906123e9565b60405180910390fd5b50565b600033905090565b816004600083815260200190815260200160002060006101000a81548173ffffffffffffffffffffffffffffffffffffffff021916908373ffffffffffffffffffffffffffffffffffffffff160217905550808273ffffffffffffffffffffffffffffffffffffffff1661100a836107b8565b73ffffffffffffffffffffffffffffffffffffffff167f8c5be1e5ebec7d5bd14f71427d1e84f3dd0314c0f7b2291e5b200ac8c7c3b92560405160405180910390a45050565b61106a8282604051806020016040528060008152506115dc565b5050565b60008061107a836107b8565b90508073ffffffffffffffffffffffffffffffffffffffff168473ffffffffffffffffffffffffffffffffffffffff1614806110bc57506110bb8185610ccd565b5b806110fa57508373ffffffffffffffffffffffffffffffffffffffff166110e2846104dd565b73ffffffffffffffffffffffffffffffffffffffff16145b91505092915050565b8273ffffffffffffffffffffffffffffffffffffffff16611123826107b8565b73ffffffffffffffffffffffffffffffffffffffff1614611179576040517f08c379a0000000000000000000000000000000000000000000000000000000008152600401611170906129b7565b60405180910390fd5b600073ffffffffffffffffffffffffffffffffffffffff168273ffffffffffffffffffffffffffffffffffffffff1614156111e9576040517f08c379a00000000000000000000000000000000000000000000000000000000081526004016111e090612a49565b60405180910390fd5b6111f4838383611637565b6111ff600082610f97565b6001600360008573ffffffffffffffffffffffffffffffffffffffff1673ffffffffffffffffffffffffffffffffffffffff168152602001908152602001600020600082825461124f9190612a69565b925050819055506001600360008473ffffffffffffffffffffffffffffffffffffffff1673ffffffffffffffffffffffffffffffffffffffff16815260200190815260200160002060008282546112a69190612835565b92505081905550816002600083815260200190815260200160002060006101000a81548173ffffffffffffffffffffffffffffffffffffffff021916908373ffffffffffffffffffffffffffffffffffffffff160217905550808273ffffffffffffffffffffffffffffffffffffffff168473ffffffffffffffffffffffffffffffffffffffff167fddf252ad1be2c89b69c2b068fc378daa952ba7f163c4a11628f55a4df523b3ef60405160405180910390a461136583838361163c565b505050565b8173ffffffffffffffffffffffffffffffffffffffff168373ffffffffffffffffffffffffffffffffffffffff1614156113d9576040517f08c379a00000000000000000000000000000000000000000000000000000000081526004016113d090612ae9565b60405180910390fd5b80600560008573ffffffffffffffffffffffffffffffffffffffff1673ffffffffffffffffffffffffffffffffffffffff16815260200190815260200160002060008473ffffffffffffffffffffffffffffffffffffffff1673ffffffffffffffffffffffffffffffffffffffff16815260200190815260200160002060006101000a81548160ff0219169083151502179055508173ffffffffffffffffffffffffffffffffffffffff168373ffffffffffffffffffffffffffffffffffffffff167f17307eab39ab6107e8899845ad3d59bd9653f200f220920489ca2b5937696c31836040516114ca9190611a89565b60405180910390a3505050565b6114e2848484611103565b6114ee84848484611641565b61152d576040517f08c379a000000000000000000000000000000000000000000000000000000000815260040161152490612b7b565b60405180910390fd5b50505050565b60008073ffffffffffffffffffffffffffffffffffffffff166002600084815260200190815260200160002060009054906101000a900473ffffffffffffffffffffffffffffffffffffffff1673ffffffffffffffffffffffffffffffffffffffff1614159050919050565b60606040518060400160405280601d81526020017f646174613a6170706c69636174696f6e2f6a736f6e3b6261736536342c000000815250905090565b6115e683836117d8565b6115f36000848484611641565b611632576040517f08c379a000000000000000000000000000000000000000000000000000000000815260040161162990612b7b565b60405180910390fd5b505050565b505050565b505050565b60006116628473ffffffffffffffffffffffffffffffffffffffff166119b2565b156117cb578373ffffffffffffffffffffffffffffffffffffffff1663150b7a0261168b610f8f565b8786866040518563ffffffff1660e01b81526004016116ad9493929190612bf0565b602060405180830381600087803b1580156116c757600080fd5b505af19250505080156116f857506040513d601f19601f820116820180604052508101906116f59190612c51565b60015b61177b573d8060008114611728576040519150601f19603f3d011682016040523d82523d6000602084013e61172d565b606091505b50600081511415611773576040517f08c379a000000000000000000000000000000000000000000000000000000000815260040161176a90612b7b565b60405180910390fd5b805181602001fd5b63150b7a0260e01b7bffffffffffffffffffffffffffffffffffffffffffffffffffffffff1916817bffffffffffffffffffffffffffffffffffffffffffffffffffffffff1916149150506117d0565b600190505b949350505050565b600073ffffffffffffffffffffffffffffffffffffffff168273ffffffffffffffffffffffffffffffffffffffff161415611848576040517f08c379a000000000000000000000000000000000000000000000000000000000815260040161183f90612cca565b60405180910390fd5b61185181611533565b15611891576040517f08c379a000000000000000000000000000000000000000000000000000000000815260040161188890612d36565b60405180910390fd5b61189d60008383611637565b6001600360008473ffffffffffffffffffffffffffffffffffffffff1673ffffffffffffffffffffffffffffffffffffffff16815260200190815260200160002060008282546118ed9190612835565b92505081905550816002600083815260200190815260200160002060006101000a81548173ffffffffffffffffffffffffffffffffffffffff021916908373ffffffffffffffffffffffffffffffffffffffff160217905550808273ffffffffffffffffffffffffffffffffffffffff16600073ffffffffffffffffffffffffffffffffffffffff167fddf252ad1be2c89b69c2b068fc378daa952ba7f163c4a11628f55a4df523b3ef60405160405180910390a46119ae6000838361163c565b5050565b6000808273ffffffffffffffffffffffffffffffffffffffff163b119050919050565b6000604051905090565b600080fd5b600080fd5b60007fffffffff0000000000000000000000000000000000000000000000000000000082169050919050565b611a1e816119e9565b8114611a2957600080fd5b50565b600081359050611a3b81611a15565b92915050565b600060208284031215611a5757611a566119df565b5b6000611a6584828501611a2c565b91505092915050565b60008115159050919050565b611a8381611a6e565b82525050565b6000602082019050611a9e6000830184611a7a565b92915050565b600081519050919050565b600082825260208201905092915050565b60005b83811015611ade578082015181840152602081019050611ac3565b83811115611aed576000848401525b50505050565b6000601f19601f8301169050919050565b6000611b0f82611aa4565b611b198185611aaf565b9350611b29818560208601611ac0565b611b3281611af3565b840191505092915050565b60006020820190508181036000830152611b578184611b04565b905092915050565b6000819050919050565b611b7281611b5f565b8114611b7d57600080fd5b50565b600081359050611b8f81611b69565b92915050565b600060208284031215611bab57611baa6119df565b5b6000611bb984828501611b80565b91505092915050565b600073ffffffffffffffffffffffffffffffffffffffff82169050919050565b6000611bed82611bc2565b9050919050565b611bfd81611be2565b82525050565b6000602082019050611c186000830184611bf4565b92915050565b611c2781611be2565b8114611c3257600080fd5b50565b600081359050611c4481611c1e565b92915050565b60008060408385031215611c6157611c606119df565b5b6000611c6f85828601611c35565b9250506020611c8085828601611b80565b9150509250929050565b6000819050919050565b611c9d81611c8a565b8114611ca857600080fd5b50565b600081359050611cba81611c94565b92915050565b600060208284031215611cd657611cd56119df565b5b6000611ce484828501611cab565b91505092915050565b600080600060608486031215611d0657611d056119df565b5b6000611d1486828701611c35565b9350506020611d2586828701611c35565b9250506040611d3686828701611b80565b9150509250925092565b600080fd5b600080fd5b7f4e487b7100000000000000000000000000000000000000000000000000000000600052604160045260246000fd5b611d8282611af3565b810181811067ffffffffffffffff82111715611da157611da0611d4a565b5b80604052505050565b6000611db46119d5565b9050611dc08282611d79565b919050565b600067ffffffffffffffff821115611de057611ddf611d4a565b5b611de982611af3565b9050602081019050919050565b82818337600083830152505050565b6000611e18611e1384611dc5565b611daa565b905082815260208101848484011115611e3457611e33611d45565b5b611e3f848285611df6565b509392505050565b600082601f830112611e5c57611e5b611d40565b5b8135611e6c848260208601611e05565b91505092915050565b600060208284031215611e8b57611e8a6119df565b5b600082013567ffffffffffffffff811115611ea957611ea86119e4565b5b611eb584828501611e47565b91505092915050565b600060208284031215611ed457611ed36119df565b5b6000611ee284828501611c35565b91505092915050565b611ef481611b5f565b82525050565b6000602082019050611f0f6000830184611eeb565b92915050565b611f1e81611a6e565b8114611f2957600080fd5b50565b600081359050611f3b81611f15565b92915050565b60008060408385031215611f5857611f576119df565b5b6000611f6685828601611c35565b9250506020611f7785828601611f2c565b9150509250929050565b600067ffffffffffffffff821115611f9c57611f9b611d4a565b5b611fa582611af3565b9050602081019050919050565b6000611fc5611fc084611f81565b611daa565b905082815260208101848484011115611fe157611fe0611d45565b5b611fec848285611df6565b509392505050565b600082601f83011261200957612008611d40565b5b8135612019848260208601611fb2565b91505092915050565b6000806000806080858703121561203c5761203b6119df565b5b600061204a87828801611c35565b945050602061205b87828801611c35565b935050604061206c87828801611b80565b925050606085013567ffffffffffffffff81111561208d5761208c6119e4565b5b61209987828801611ff4565b91505092959194509250565b6120ae81611c8a565b82525050565b60006020820190506120c960008301846120a5565b92915050565b600080604083850312156120e6576120e56119df565b5b60006120f485828601611c35565b925050602061210585828601611c35565b9150509250929050565b7f4e487b7100000000000000000000000000000000000000000000000000000000600052602260045260246000fd5b6000600282049050600182168061215657607f821691505b6020821081141561216a5761216961210f565b5b50919050565b7f4552433732313a20617070726f76616c20746f2063757272656e74206f776e6560008201527f7200000000000000000000000000000000000000000000000000000000000000602082015250565b60006121cc602183611aaf565b91506121d782612170565b604082019050919050565b600060208201905081810360008301526121fb816121bf565b9050919050565b7f4552433732313a20617070726f76652063616c6c6572206973206e6f7420746f60008201527f6b656e206f776e6572206e6f7220617070726f76656420666f7220616c6c0000602082015250565b600061225e603e83611aaf565b915061226982612202565b604082019050919050565b6000602082019050818103600083015261228d81612251565b9050919050565b7f4552433732313a2063616c6c6572206973206e6f7420746f6b656e206f776e6560008201527f72206e6f7220617070726f766564000000000000000000000000000000000000602082015250565b60006122f0602e83611aaf565b91506122fb82612294565b604082019050919050565b6000602082019050818103600083015261231f816122e3565b9050919050565b600081905092915050565b600061233c82611aa4565b6123468185612326565b9350612356818560208601611ac0565b80840191505092915050565b600061236e8284612331565b915081905092915050565b60006123858285612331565b91506123918284612331565b91508190509392505050565b7f4552433732313a20696e76616c696420746f6b656e2049440000000000000000600082015250565b60006123d3601883611aaf565b91506123de8261239d565b602082019050919050565b60006020820190508181036000830152612402816123c6565b9050919050565b7f4552433732313a2061646472657373207a65726f206973206e6f74206120766160008201527f6c6964206f776e65720000000000000000000000000000000000000000000000602082015250565b6000612465602983611aaf565b915061247082612409565b604082019050919050565b6000602082019050818103600083015261249481612458565b9050919050565b7f55524920517565727920666f72206e6f6e6578697374656e7420746f6b656e00600082015250565b60006124d1601f83611aaf565b91506124dc8261249b565b602082019050919050565b60006020820190508181036000830152612500816124c4565b9050919050565b600069ffffffffffffffffffff82169050919050565b61252681612507565b811461253157600080fd5b50565b6000815190506125438161251d565b92915050565b60008151905061255881611c94565b92915050565b60008151905061256d81611b69565b92915050565b600080600080600060a0868803121561258f5761258e6119df565b5b600061259d88828901612534565b95505060206125ae88828901612549565b94505060406125bf8882890161255e565b93505060606125d08882890161255e565b92505060806125e188828901612534565b9150509295509295909350565b7f7b226e616d65223a220000000000000000000000000000000000000000000000600082015250565b6000612624600983612326565b915061262f826125ee565b600982019050919050565b7f222c20226465736372697074696f6e223a22416e204e4654207468617420636860008201527f616e676573206261736564206f6e2074686520436861696e6c696e6b2046656560208201527f64222c0000000000000000000000000000000000000000000000000000000000604082015250565b60006126bc604383612326565b91506126c78261263a565b604382019050919050565b7f2261747472696275746573223a205b7b2274726169745f74797065223a20226360008201527f6f6f6c6e657373222c202276616c7565223a203130307d5d2c2022696d61676560208201527f223a220000000000000000000000000000000000000000000000000000000000604082015250565b6000612754604383612326565b915061275f826126d2565b604382019050919050565b7f227d000000000000000000000000000000000000000000000000000000000000600082015250565b60006127a0600283612326565b91506127ab8261276a565b600282019050919050565b60006127c182612617565b91506127cd8285612331565b91506127d8826126af565b91506127e382612747565b91506127ef8284612331565b91506127fa82612793565b91508190509392505050565b7f4e487b7100000000000000000000000000000000000000000000000000000000600052601160045260246000fd5b600061284082611b5f565b915061284b83611b5f565b9250827fffffffffffffffffffffffffffffffffffffffffffffffffffffffffffffffff038211156128805761287f612806565b5b828201905092915050565b7f4e487b7100000000000000000000000000000000000000000000000000000000600052601260045260246000fd5b60006128c582611b5f565b91506128d083611b5f565b9250826128e0576128df61288b565b5b828204905092915050565b60006128f682611b5f565b915061290183611b5f565b9250817fffffffffffffffffffffffffffffffffffffffffffffffffffffffffffffffff048311821515161561293a57612939612806565b5b828202905092915050565b7f4552433732313a207472616e736665722066726f6d20696e636f72726563742060008201527f6f776e6572000000000000000000000000000000000000000000000000000000602082015250565b60006129a1602583611aaf565b91506129ac82612945565b604082019050919050565b600060208201905081810360008301526129d081612994565b9050919050565b7f4552433732313a207472616e7366657220746f20746865207a65726f2061646460008201527f7265737300000000000000000000000000000000000000000000000000000000602082015250565b6000612a33602483611aaf565b9150612a3e826129d7565b604082019050919050565b60006020820190508181036000830152612a6281612a26565b9050919050565b6000612a7482611b5f565b9150612a7f83611b5f565b925082821015612a9257612a91612806565b5b828203905092915050565b7f4552433732313a20617070726f766520746f2063616c6c657200000000000000600082015250565b6000612ad3601983611aaf565b9150612ade82612a9d565b602082019050919050565b60006020820190508181036000830152612b0281612ac6565b9050919050565b7f4552433732313a207472616e7366657220746f206e6f6e20455243373231526560008201527f63656976657220696d706c656d656e7465720000000000000000000000000000602082015250565b6000612b65603283611aaf565b9150612b7082612b09565b604082019050919050565b60006020820190508181036000830152612b9481612b58565b9050919050565b600081519050919050565b600082825260208201905092915050565b6000612bc282612b9b565b612bcc8185612ba6565b9350612bdc818560208601611ac0565b612be581611af3565b840191505092915050565b6000608082019050612c056000830187611bf4565b612c126020830186611bf4565b612c1f6040830185611eeb565b8181036060830152612c318184612bb7565b905095945050505050565b600081519050612c4b81611a15565b92915050565b600060208284031215612c6757612c666119df565b5b6000612c7584828501612c3c565b91505092915050565b7f4552433732313a206d696e7420746f20746865207a65726f2061646472657373600082015250565b6000612cb4602083611aaf565b9150612cbf82612c7e565b602082019050919050565b60006020820190508181036000830152612ce381612ca7565b9050919050565b7f4552433732313a20746f6b656e20616c7265616479206d696e74656400000000600082015250565b6000612d20601c83611aaf565b9150612d2b82612cea565b602082019050919050565b60006020820190508181036000830152612d4f81612d13565b905091905056fe4142434445464748494a4b4c4d4e4f505152535455565758595a6162636465666768696a6b6c6d6e6f707172737475767778797a303132333435363738392b2fa26469706673582212206d50395d46852cbf7309ed616e71c7ae8dbcab6d814465280868eaeda130e23f64736f6c634300080900334142434445464748494a4b4c4d4e4f505152535455565758595a6162636465666768696a6b6c6d6e6f707172737475767778797a303132333435363738392b2f",
  "linkReferences": {},
  "deployedLinkReferences": {}
}