{
  "_format": "hh-sol-artifact-1",
  "contractName": "RandomIpfsNft",
  "sourceName": "contracts/RandomipfsNft.sol",
  "abi": [
    {
      "inputs": [
        {
          "internalType": "address",
          "name": "vrfCoordinatorV2",
          "type": "address"
        },
        {
          "internalType": "uint64",
          "name": "subscriptionId",
          "type": "uint64"
        },
        {
          "internalType": "bytes32",
          "name": "gasLane",
          "type": "bytes32"
        },
        {
          "internalType": "uint32",
          "name": "callbackGasLimit",
          "type": "uint32"
        },
        {
          "internalType": "string[]",
          "name": "dogTokenUris",
          "type": "string[]"
        },
        {
          "internalType": "uint256",
          "name": "mintFee",
          "type": "uint256"
        }
      ],
      "stateMutability": "nonpayable",
      "type": "constructor"
    },
    {
      "inputs": [
        {
          "internalType": "address",
          "name": "have",
          "type": "address"
        },
        {
          "internalType": "address",
          "name": "want",
          "type": "address"
        }
      ],
      "name": "OnlyCoordinatorCanFulfill",
      "type": "error"
    },
    {
      "inputs": [],
      "name": "RandomIpfsNft__NeedMoreETHSent",
      "type": "error"
    },
    {
      "inputs": [],
      "name": "RandomIpfsNft__RangeOutOfBounds",
      "type": "error"
    },
    {
      "inputs": [],
      "name": "RandomIpfsNft__TransferFailed",
      "type": "error"
    },
    {
      "anonymous": false,
      "inputs": [
        {
          "indexed": true,
          "internalType": "address",
          "name": "owner",
          "type": "address"
        },
        {
          "indexed": true,
          "internalType": "address",
          "name": "approved",
          "type": "address"
        },
        {
          "indexed": true,
          "internalType": "uint256",
          "name": "tokenId",
          "type": "uint256"
        }
      ],
      "name": "Approval",
      "type": "event"
    },
    {
      "anonymous": false,
      "inputs": [
        {
          "indexed": true,
          "internalType": "address",
          "name": "owner",
          "type": "address"
        },
        {
          "indexed": true,
          "internalType": "address",
          "name": "operator",
          "type": "address"
        },
        {
          "indexed": false,
          "internalType": "bool",
          "name": "approved",
          "type": "bool"
        }
      ],
      "name": "ApprovalForAll",
      "type": "event"
    },
    {
      "anonymous": false,
      "inputs": [
        {
          "indexed": false,
          "internalType": "enum RandomIpfsNft.Breed",
          "name": "dogBreed",
          "type": "uint8"
        },
        {
          "indexed": false,
          "internalType": "address",
          "name": "minter",
          "type": "address"
        }
      ],
      "name": "NftMinted",
      "type": "event"
    },
    {
      "anonymous": false,
      "inputs": [
        {
          "indexed": true,
          "internalType": "uint256",
          "name": "requestId",
          "type": "uint256"
        },
        {
          "indexed": false,
          "internalType": "address",
          "name": "requester",
          "type": "address"
        }
      ],
      "name": "NftRequested",
      "type": "event"
    },
    {
      "anonymous": false,
      "inputs": [
        {
          "indexed": true,
          "internalType": "address",
          "name": "previousOwner",
          "type": "address"
        },
        {
          "indexed": true,
          "internalType": "address",
          "name": "newOwner",
          "type": "address"
        }
      ],
      "name": "OwnershipTransferred",
      "type": "event"
    },
    {
      "anonymous": false,
      "inputs": [
        {
          "indexed": true,
          "internalType": "address",
          "name": "from",
          "type": "address"
        },
        {
          "indexed": true,
          "internalType": "address",
          "name": "to",
          "type": "address"
        },
        {
          "indexed": true,
          "internalType": "uint256",
          "name": "tokenId",
          "type": "uint256"
        }
      ],
      "name": "Transfer",
      "type": "event"
    },
    {
      "inputs": [
        {
          "internalType": "address",
          "name": "to",
          "type": "address"
        },
        {
          "internalType": "uint256",
          "name": "tokenId",
          "type": "uint256"
        }
      ],
      "name": "approve",
      "outputs": [],
      "stateMutability": "nonpayable",
      "type": "function"
    },
    {
      "inputs": [
        {
          "internalType": "address",
          "name": "owner",
          "type": "address"
        }
      ],
      "name": "balanceOf",
      "outputs": [
        {
          "internalType": "uint256",
          "name": "",
          "type": "uint256"
        }
      ],
      "stateMutability": "view",
      "type": "function"
    },
    {
      "inputs": [
        {
          "internalType": "uint256",
          "name": "tokenId",
          "type": "uint256"
        }
      ],
      "name": "getApproved",
      "outputs": [
        {
          "internalType": "address",
          "name": "",
          "type": "address"
        }
      ],
      "stateMutability": "view",
      "type": "function"
    },
    {
      "inputs": [
        {
          "internalType": "uint256",
          "name": "moddedRng",
          "type": "uint256"
        }
      ],
      "name": "getBreedFromModdedRng",
      "outputs": [
        {
          "internalType": "enum RandomIpfsNft.Breed",
          "name": "",
          "type": "uint8"
        }
      ],
      "stateMutability": "pure",
      "type": "function"
    },
    {
      "inputs": [],
      "name": "getChanceArray",
      "outputs": [
        {
          "internalType": "uint256[3]",
          "name": "",
          "type": "uint256[3]"
        }
      ],
      "stateMutability": "pure",
      "type": "function"
    },
    {
      "inputs": [
        {
          "internalType": "uint256",
          "name": "index",
          "type": "uint256"
        }
      ],
      "name": "getDogTokenUris",
      "outputs": [
        {
          "internalType": "string",
          "name": "",
          "type": "string"
        }
      ],
      "stateMutability": "view",
      "type": "function"
    },
    {
      "inputs": [],
      "name": "getMintFee",
      "outputs": [
        {
          "internalType": "uint256",
          "name": "",
          "type": "uint256"
        }
      ],
      "stateMutability": "view",
      "type": "function"
    },
    {
      "inputs": [],
      "name": "getTokenCounter",
      "outputs": [
        {
          "internalType": "uint256",
          "name": "",
          "type": "uint256"
        }
      ],
      "stateMutability": "view",
      "type": "function"
    },
    {
      "inputs": [
        {
          "internalType": "address",
          "name": "owner",
          "type": "address"
        },
        {
          "internalType": "address",
          "name": "operator",
          "type": "address"
        }
      ],
      "name": "isApprovedForAll",
      "outputs": [
        {
          "internalType": "bool",
          "name": "",
          "type": "bool"
        }
      ],
      "stateMutability": "view",
      "type": "function"
    },
    {
      "inputs": [],
      "name": "name",
      "outputs": [
        {
          "internalType": "string",
          "name": "",
          "type": "string"
        }
      ],
      "stateMutability": "view",
      "type": "function"
    },
    {
      "inputs": [],
      "name": "owner",
      "outputs": [
        {
          "internalType": "address",
          "name": "",
          "type": "address"
        }
      ],
      "stateMutability": "view",
      "type": "function"
    },
    {
      "inputs": [
        {
          "internalType": "uint256",
          "name": "tokenId",
          "type": "uint256"
        }
      ],
      "name": "ownerOf",
      "outputs": [
        {
          "internalType": "address",
          "name": "",
          "type": "address"
        }
      ],
      "stateMutability": "view",
      "type": "function"
    },
    {
      "inputs": [
        {
          "internalType": "uint256",
          "name": "requestId",
          "type": "uint256"
        },
        {
          "internalType": "uint256[]",
          "name": "randomWords",
          "type": "uint256[]"
        }
      ],
      "name": "rawFulfillRandomWords",
      "outputs": [],
      "stateMutability": "nonpayable",
      "type": "function"
    },
    {
      "inputs": [],
      "name": "renounceOwnership",
      "outputs": [],
      "stateMutability": "nonpayable",
      "type": "function"
    },
    {
      "inputs": [],
      "name": "requestNft",
      "outputs": [
        {
          "internalType": "uint256",
          "name": "requestId",
          "type": "uint256"
        }
      ],
      "stateMutability": "payable",
      "type": "function"
    },
    {
      "inputs": [
        {
          "internalType": "uint256",
          "name": "",
          "type": "uint256"
        }
      ],
      "name": "s_requestIdToSender",
      "outputs": [
        {
          "internalType": "address",
          "name": "",
          "type": "address"
        }
      ],
      "stateMutability": "view",
      "type": "function"
    },
    {
      "inputs": [],
      "name": "s_tokenCounter",
      "outputs": [
        {
          "internalType": "uint256",
          "name": "",
          "type": "uint256"
        }
      ],
      "stateMutability": "view",
      "type": "function"
    },
    {
      "inputs": [
        {
          "internalType": "address",
          "name": "from",
          "type": "address"
        },
        {
          "internalType": "address",
          "name": "to",
          "type": "address"
        },
        {
          "internalType": "uint256",
          "name": "tokenId",
          "type": "uint256"
        }
      ],
      "name": "safeTransferFrom",
      "outputs": [],
      "stateMutability": "nonpayable",
      "type": "function"
    },
    {
      "inputs": [
        {
          "internalType": "address",
          "name": "from",
          "type": "address"
        },
        {
          "internalType": "address",
          "name": "to",
          "type": "address"
        },
        {
          "internalType": "uint256",
          "name": "tokenId",
          "type": "uint256"
        },
        {
          "internalType": "bytes",
          "name": "data",
          "type": "bytes"
        }
      ],
      "name": "safeTransferFrom",
      "outputs": [],
      "stateMutability": "nonpayable",
      "type": "function"
    },
    {
      "inputs": [
        {
          "internalType": "address",
          "name": "operator",
          "type": "address"
        },
        {
          "internalType": "bool",
          "name": "approved",
          "type": "bool"
        }
      ],
      "name": "setApprovalForAll",
      "outputs": [],
      "stateMutability": "nonpayable",
      "type": "function"
    },
    {
      "inputs": [
        {
          "internalType": "bytes4",
          "name": "interfaceId",
          "type": "bytes4"
        }
      ],
      "name": "supportsInterface",
      "outputs": [
        {
          "internalType": "bool",
          "name": "",
          "type": "bool"
        }
      ],
      "stateMutability": "view",
      "type": "function"
    },
    {
      "inputs": [],
      "name": "symbol",
      "outputs": [
        {
          "internalType": "string",
          "name": "",
          "type": "string"
        }
      ],
      "stateMutability": "view",
      "type": "function"
    },
    {
      "inputs": [
        {
          "internalType": "uint256",
          "name": "tokenId",
          "type": "uint256"
        }
      ],
      "name": "tokenURI",
      "outputs": [
        {
          "internalType": "string",
          "name": "",
          "type": "string"
        }
      ],
      "stateMutability": "view",
      "type": "function"
    },
    {
      "inputs": [
        {
          "internalType": "address",
          "name": "from",
          "type": "address"
        },
        {
          "internalType": "address",
          "name": "to",
          "type": "address"
        },
        {
          "internalType": "uint256",
          "name": "tokenId",
          "type": "uint256"
        }
      ],
      "name": "transferFrom",
      "outputs": [],
      "stateMutability": "nonpayable",
      "type": "function"
    },
    {
      "inputs": [
        {
          "internalType": "address",
          "name": "newOwner",
          "type": "address"
        }
      ],
      "name": "transferOwnership",
      "outputs": [],
      "stateMutability": "nonpayable",
      "type": "function"
    },
    {
      "inputs": [],
      "name": "withdraw",
      "outputs": [],
      "stateMutability": "nonpayable",
      "type": "function"
    }
  ],
  "bytecode": "0x6101406040523480156200001257600080fd5b506040516200430038038062004300833981810160405281019062000038919062000816565b6040518060400160405280600f81526020017f52616e646f6d2049504653204e465400000000000000000000000000000000008152506040518060400160405280600381526020017f52494e0000000000000000000000000000000000000000000000000000000000815250878073ffffffffffffffffffffffffffffffffffffffff1660808173ffffffffffffffffffffffffffffffffffffffff1681525050508160009080519060200190620000f292919062000297565b5080600190805190602001906200010b92919062000297565b5050506200012e62000122620001c960201b60201c565b620001d160201b60201c565b8573ffffffffffffffffffffffffffffffffffffffff1660a08173ffffffffffffffffffffffffffffffffffffffff16815250508467ffffffffffffffff1660c08167ffffffffffffffff16815250508360e081815250508263ffffffff166101008163ffffffff168152505081600a9080519060200190620001b392919062000328565b5080610120818152505050505050505062000936565b600033905090565b6000600760009054906101000a900473ffffffffffffffffffffffffffffffffffffffff16905081600760006101000a81548173ffffffffffffffffffffffffffffffffffffffff021916908373ffffffffffffffffffffffffffffffffffffffff1602179055508173ffffffffffffffffffffffffffffffffffffffff168173ffffffffffffffffffffffffffffffffffffffff167f8be0079c531659141344cd1fd0a4f28419497f9722a3daafe3b4186f6b6457e060405160405180910390a35050565b828054620002a59062000900565b90600052602060002090601f016020900481019282620002c9576000855562000315565b82601f10620002e457805160ff191683800117855562000315565b8280016001018555821562000315579182015b8281111562000314578251825591602001919060010190620002f7565b5b5090506200032491906200038f565b5090565b8280548282559060005260206000209081019282156200037c579160200282015b828111156200037b5782518290805190602001906200036a92919062000297565b509160200191906001019062000349565b5b5090506200038b9190620003ae565b5090565b5b80821115620003aa57600081600090555060010162000390565b5090565b5b80821115620003d25760008181620003c89190620003d6565b50600101620003af565b5090565b508054620003e49062000900565b6000825580601f10620003f8575062000419565b601f0160209004906000526020600020908101906200041891906200038f565b5b50565b6000604051905090565b600080fd5b600080fd5b600073ffffffffffffffffffffffffffffffffffffffff82169050919050565b60006200045d8262000430565b9050919050565b6200046f8162000450565b81146200047b57600080fd5b50565b6000815190506200048f8162000464565b92915050565b600067ffffffffffffffff82169050919050565b620004b48162000495565b8114620004c057600080fd5b50565b600081519050620004d481620004a9565b92915050565b6000819050919050565b620004ef81620004da565b8114620004fb57600080fd5b50565b6000815190506200050f81620004e4565b92915050565b600063ffffffff82169050919050565b620005308162000515565b81146200053c57600080fd5b50565b600081519050620005508162000525565b92915050565b600080fd5b6000601f19601f8301169050919050565b7f4e487b7100000000000000000000000000000000000000000000000000000000600052604160045260246000fd5b620005a6826200055b565b810181811067ffffffffffffffff82111715620005c857620005c76200056c565b5b80604052505050565b6000620005dd6200041c565b9050620005eb82826200059b565b919050565b600067ffffffffffffffff8211156200060e576200060d6200056c565b5b602082029050602081019050919050565b600080fd5b600080fd5b600067ffffffffffffffff8211156200064757620006466200056c565b5b62000652826200055b565b9050602081019050919050565b60005b838110156200067f57808201518184015260208101905062000662565b838111156200068f576000848401525b50505050565b6000620006ac620006a68462000629565b620005d1565b905082815260208101848484011115620006cb57620006ca62000624565b5b620006d88482856200065f565b509392505050565b600082601f830112620006f857620006f762000556565b5b81516200070a84826020860162000695565b91505092915050565b60006200072a6200072484620005f0565b620005d1565b9050808382526020820190506020840283018581111562000750576200074f6200061f565b5b835b818110156200079e57805167ffffffffffffffff81111562000779576200077862000556565b5b808601620007888982620006e0565b8552602085019450505060208101905062000752565b5050509392505050565b600082601f830112620007c057620007bf62000556565b5b8151620007d284826020860162000713565b91505092915050565b6000819050919050565b620007f081620007db565b8114620007fc57600080fd5b50565b6000815190506200081081620007e5565b92915050565b60008060008060008060c0878903121562000836576200083562000426565b5b60006200084689828a016200047e565b96505060206200085989828a01620004c3565b95505060406200086c89828a01620004fe565b94505060606200087f89828a016200053f565b935050608087015167ffffffffffffffff811115620008a357620008a26200042b565b5b620008b189828a01620007a8565b92505060a0620008c489828a01620007ff565b9150509295509295509295565b7f4e487b7100000000000000000000000000000000000000000000000000000000600052602260045260246000fd5b600060028204905060018216806200091957607f821691505b6020821081141562000930576200092f620008d1565b5b50919050565b60805160a05160c05160e051610100516101205161396c6200099460003960008181610d760152610f850152600061105f0152600061101b0152600061103c01526000610fdf01526000818161091d0152610971015261396c6000f3fe6080604052600436106101815760003560e01c806370a08231116100d1578063a36f573b1161008a578063b88d4fde11610064578063b88d4fde14610577578063c87b56dd146105a0578063e985e9c5146105dd578063f2fde38b1461061a57610181565b8063a36f573b146104df578063a51cccf31461051c578063aa1524911461055957610181565b806370a08231146103e1578063715018a61461041e5780637a5caab3146104355780638da5cb5b1461046057806395d89b411461048b578063a22cb465146104b657610181565b806323b872dd1161013e57806342842e0e1161011857806342842e0e146103255780635dacf5f41461034e5780636352211e146103795780636e02007d146103b657610181565b806323b872dd146102a85780633af25975146102d15780633ccfd60b1461030e57610181565b806301ffc9a71461018657806306fdde03146101c3578063081812fc146101ee578063095ea7b31461022b5780630b21a83b146102545780631fe543e31461027f575b600080fd5b34801561019257600080fd5b506101ad60048036038101906101a8919061251a565b610643565b6040516101ba9190612562565b60405180910390f35b3480156101cf57600080fd5b506101d8610725565b6040516101e59190612616565b60405180910390f35b3480156101fa57600080fd5b506102156004803603810190610210919061266e565b6107b7565b60405161022291906126dc565b60405180910390f35b34801561023757600080fd5b50610252600480360381019061024d9190612723565b6107fd565b005b34801561026057600080fd5b50610269610915565b6040516102769190612772565b60405180910390f35b34801561028b57600080fd5b506102a660048036038101906102a191906128d5565b61091b565b005b3480156102b457600080fd5b506102cf60048036038101906102ca9190612931565b6109db565b005b3480156102dd57600080fd5b506102f860048036038101906102f3919061266e565b610a3b565b6040516103059190612616565b60405180910390f35b34801561031a57600080fd5b50610323610aeb565b005b34801561033157600080fd5b5061034c60048036038101906103479190612931565b610b9f565b005b34801561035a57600080fd5b50610363610bbf565b6040516103709190612a2f565b60405180910390f35b34801561038557600080fd5b506103a0600480360381019061039b919061266e565b610bea565b6040516103ad91906126dc565b60405180910390f35b3480156103c257600080fd5b506103cb610c9c565b6040516103d89190612772565b60405180910390f35b3480156103ed57600080fd5b5061040860048036038101906104039190612a4a565b610ca6565b6040516104159190612772565b60405180910390f35b34801561042a57600080fd5b50610433610d5e565b005b34801561044157600080fd5b5061044a610d72565b6040516104579190612772565b60405180910390f35b34801561046c57600080fd5b50610475610d9a565b60405161048291906126dc565b60405180910390f35b34801561049757600080fd5b506104a0610dc4565b6040516104ad9190612616565b60405180910390f35b3480156104c257600080fd5b506104dd60048036038101906104d89190612aa3565b610e56565b005b3480156104eb57600080fd5b506105066004803603810190610501919061266e565b610e6c565b60405161051391906126dc565b60405180910390f35b34801561052857600080fd5b50610543600480360381019061053e919061266e565b610e9f565b6040516105509190612b5a565b60405180910390f35b610561610f81565b60405161056e9190612772565b60405180910390f35b34801561058357600080fd5b5061059e60048036038101906105999190612c2a565b611181565b005b3480156105ac57600080fd5b506105c760048036038101906105c2919061266e565b6111e3565b6040516105d49190612616565b60405180910390f35b3480156105e957600080fd5b5061060460048036038101906105ff9190612cad565b6112f6565b6040516106119190612562565b60405180910390f35b34801561062657600080fd5b50610641600480360381019061063c9190612a4a565b61138a565b005b60007f80ac58cd000000000000000000000000000000000000000000000000000000007bffffffffffffffffffffffffffffffffffffffffffffffffffffffff1916827bffffffffffffffffffffffffffffffffffffffffffffffffffffffff1916148061070e57507f5b5e139f000000000000000000000000000000000000000000000000000000007bffffffffffffffffffffffffffffffffffffffffffffffffffffffff1916827bffffffffffffffffffffffffffffffffffffffffffffffffffffffff1916145b8061071e575061071d8261140e565b5b9050919050565b60606000805461073490612d1c565b80601f016020809104026020016040519081016040528092919081815260200182805461076090612d1c565b80156107ad5780601f10610782576101008083540402835291602001916107ad565b820191906000526020600020905b81548152906001019060200180831161079057829003601f168201915b5050505050905090565b60006107c282611478565b6004600083815260200190815260200160002060009054906101000a900473ffffffffffffffffffffffffffffffffffffffff169050919050565b600061080882610bea565b90508073ffffffffffffffffffffffffffffffffffffffff168373ffffffffffffffffffffffffffffffffffffffff161415610879576040517f08c379a000000000000000000000000000000000000000000000000000000000815260040161087090612dc0565b60405180910390fd5b8073ffffffffffffffffffffffffffffffffffffffff166108986114c3565b73ffffffffffffffffffffffffffffffffffffffff1614806108c757506108c6816108c16114c3565b6112f6565b5b610906576040517f08c379a00000000000000000000000000000000000000000000000000000000081526004016108fd90612e52565b60405180910390fd5b61091083836114cb565b505050565b60095481565b7f000000000000000000000000000000000000000000000000000000000000000073ffffffffffffffffffffffffffffffffffffffff163373ffffffffffffffffffffffffffffffffffffffff16146109cd57337f00000000000000000000000000000000000000000000000000000000000000006040517f1cf993f40000000000000000000000000000000000000000000000000000000081526004016109c4929190612e72565b60405180910390fd5b6109d78282611584565b5050565b6109ec6109e66114c3565b82611709565b610a2b576040517f08c379a0000000000000000000000000000000000000000000000000000000008152600401610a2290612f0d565b60405180910390fd5b610a3683838361179e565b505050565b6060600a8281548110610a5157610a50612f2d565b5b906000526020600020018054610a6690612d1c565b80601f0160208091040260200160405190810160405280929190818152602001828054610a9290612d1c565b8015610adf5780601f10610ab457610100808354040283529160200191610adf565b820191906000526020600020905b815481529060010190602001808311610ac257829003601f168201915b50505050509050919050565b610af3611a05565b600047905060003373ffffffffffffffffffffffffffffffffffffffff1682604051610b1e90612f8d565b60006040518083038185875af1925050503d8060008114610b5b576040519150601f19603f3d011682016040523d82523d6000602084013e610b60565b606091505b5050905080610b9b576040517fca7e25b700000000000000000000000000000000000000000000000000000000815260040160405180910390fd5b5050565b610bba83838360405180602001604052806000815250611181565b505050565b610bc76123e9565b6040518060600160405280600a8152602001601e81526020016064815250905090565b6000806002600084815260200190815260200160002060009054906101000a900473ffffffffffffffffffffffffffffffffffffffff169050600073ffffffffffffffffffffffffffffffffffffffff168173ffffffffffffffffffffffffffffffffffffffff161415610c93576040517f08c379a0000000000000000000000000000000000000000000000000000000008152600401610c8a90612fee565b60405180910390fd5b80915050919050565b6000600954905090565b60008073ffffffffffffffffffffffffffffffffffffffff168273ffffffffffffffffffffffffffffffffffffffff161415610d17576040517f08c379a0000000000000000000000000000000000000000000000000000000008152600401610d0e90613080565b60405180910390fd5b600360008373ffffffffffffffffffffffffffffffffffffffff1673ffffffffffffffffffffffffffffffffffffffff168152602001908152602001600020549050919050565b610d66611a05565b610d706000611a83565b565b60007f0000000000000000000000000000000000000000000000000000000000000000905090565b6000600760009054906101000a900473ffffffffffffffffffffffffffffffffffffffff16905090565b606060018054610dd390612d1c565b80601f0160208091040260200160405190810160405280929190818152602001828054610dff90612d1c565b8015610e4c5780601f10610e2157610100808354040283529160200191610e4c565b820191906000526020600020905b815481529060010190602001808311610e2f57829003601f168201915b5050505050905090565b610e68610e616114c3565b8383611b49565b5050565b60086020528060005260406000206000915054906101000a900473ffffffffffffffffffffffffffffffffffffffff1681565b600080600090506000610eb0610bbf565b905060005b6003811015610f4957828510158015610eef5750818160038110610edc57610edb612f2d565b5b602002015183610eec91906130cf565b85105b15610f1157806002811115610f0757610f06612ae3565b5b9350505050610f7c565b818160038110610f2457610f23612f2d565b5b602002015183610f3491906130cf565b92508080610f4190613125565b915050610eb5565b506040517f12806c9d00000000000000000000000000000000000000000000000000000000815260040160405180910390fd5b919050565b60007f0000000000000000000000000000000000000000000000000000000000000000341015610fdd576040517fb90f491000000000000000000000000000000000000000000000000000000000815260040160405180910390fd5b7f000000000000000000000000000000000000000000000000000000000000000073ffffffffffffffffffffffffffffffffffffffff16635d3b1d307f00000000000000000000000000000000000000000000000000000000000000007f000000000000000000000000000000000000000000000000000000000000000060037f000000000000000000000000000000000000000000000000000000000000000060016040518663ffffffff1660e01b81526004016110a09594939291906131e6565b602060405180830381600087803b1580156110ba57600080fd5b505af11580156110ce573d6000803e3d6000fd5b505050506040513d601f19601f820116820180604052508101906110f2919061324e565b9050336008600083815260200190815260200160002060006101000a81548173ffffffffffffffffffffffffffffffffffffffff021916908373ffffffffffffffffffffffffffffffffffffffff160217905550807ff873236e6cc0ecc5be1a9a35c95ee5b8d1ac4cc7bfef0cc5060391d6cc98e26b3360405161117691906126dc565b60405180910390a290565b61119261118c6114c3565b83611709565b6111d1576040517f08c379a00000000000000000000000000000000000000000000000000000000081526004016111c890612f0d565b60405180910390fd5b6111dd84848484611cb6565b50505050565b60606111ee82611478565b600060066000848152602001908152602001600020805461120e90612d1c565b80601f016020809104026020016040519081016040528092919081815260200182805461123a90612d1c565b80156112875780601f1061125c57610100808354040283529160200191611287565b820191906000526020600020905b81548152906001019060200180831161126a57829003601f168201915b505050505090506000611298611d12565b90506000815114156112ae5781925050506112f1565b6000825111156112e35780826040516020016112cb9291906132b7565b604051602081830303815290604052925050506112f1565b6112ec84611d29565b925050505b919050565b6000600560008473ffffffffffffffffffffffffffffffffffffffff1673ffffffffffffffffffffffffffffffffffffffff16815260200190815260200160002060008373ffffffffffffffffffffffffffffffffffffffff1673ffffffffffffffffffffffffffffffffffffffff16815260200190815260200160002060009054906101000a900460ff16905092915050565b611392611a05565b600073ffffffffffffffffffffffffffffffffffffffff168173ffffffffffffffffffffffffffffffffffffffff161415611402576040517f08c379a00000000000000000000000000000000000000000000000000000000081526004016113f99061334d565b60405180910390fd5b61140b81611a83565b50565b60007f01ffc9a7000000000000000000000000000000000000000000000000000000007bffffffffffffffffffffffffffffffffffffffffffffffffffffffff1916827bffffffffffffffffffffffffffffffffffffffffffffffffffffffff1916149050919050565b61148181611d91565b6114c0576040517f08c379a00000000000000000000000000000000000000000000000000000000081526004016114b790612fee565b60405180910390fd5b50565b600033905090565b816004600083815260200190815260200160002060006101000a81548173ffffffffffffffffffffffffffffffffffffffff021916908373ffffffffffffffffffffffffffffffffffffffff160217905550808273ffffffffffffffffffffffffffffffffffffffff1661153e83610bea565b73ffffffffffffffffffffffffffffffffffffffff167f8c5be1e5ebec7d5bd14f71427d1e84f3dd0314c0f7b2291e5b200ac8c7c3b92560405160405180910390a45050565b60006008600084815260200190815260200160002060009054906101000a900473ffffffffffffffffffffffffffffffffffffffff1690506000600954905060006064846000815181106115db576115da612f2d565b5b60200260200101516115ed919061339c565b905060006115fa82610e9f565b90506116068484611dfd565b6116c883600a83600281111561161f5761161e612ae3565b5b815481106116305761162f612f2d565b5b90600052602060002001805461164590612d1c565b80601f016020809104026020016040519081016040528092919081815260200182805461167190612d1c565b80156116be5780601f10611693576101008083540402835291602001916116be565b820191906000526020600020905b8154815290600101906020018083116116a157829003601f168201915b5050505050611e1b565b7f8a269f26b688e110e9cbd887d163dab35cae678fa353a0292de532c0cac1ecdc81856040516116f99291906133cd565b60405180910390a1505050505050565b60008061171583610bea565b90508073ffffffffffffffffffffffffffffffffffffffff168473ffffffffffffffffffffffffffffffffffffffff161480611757575061175681856112f6565b5b8061179557508373ffffffffffffffffffffffffffffffffffffffff1661177d846107b7565b73ffffffffffffffffffffffffffffffffffffffff16145b91505092915050565b8273ffffffffffffffffffffffffffffffffffffffff166117be82610bea565b73ffffffffffffffffffffffffffffffffffffffff1614611814576040517f08c379a000000000000000000000000000000000000000000000000000000000815260040161180b90613468565b60405180910390fd5b600073ffffffffffffffffffffffffffffffffffffffff168273ffffffffffffffffffffffffffffffffffffffff161415611884576040517f08c379a000000000000000000000000000000000000000000000000000000000815260040161187b906134fa565b60405180910390fd5b61188f838383611e8f565b61189a6000826114cb565b6001600360008573ffffffffffffffffffffffffffffffffffffffff1673ffffffffffffffffffffffffffffffffffffffff16815260200190815260200160002060008282546118ea919061351a565b925050819055506001600360008473ffffffffffffffffffffffffffffffffffffffff1673ffffffffffffffffffffffffffffffffffffffff168152602001908152602001600020600082825461194191906130cf565b92505081905550816002600083815260200190815260200160002060006101000a81548173ffffffffffffffffffffffffffffffffffffffff021916908373ffffffffffffffffffffffffffffffffffffffff160217905550808273ffffffffffffffffffffffffffffffffffffffff168473ffffffffffffffffffffffffffffffffffffffff167fddf252ad1be2c89b69c2b068fc378daa952ba7f163c4a11628f55a4df523b3ef60405160405180910390a4611a00838383611e94565b505050565b611a0d6114c3565b73ffffffffffffffffffffffffffffffffffffffff16611a2b610d9a565b73ffffffffffffffffffffffffffffffffffffffff1614611a81576040517f08c379a0000000000000000000000000000000000000000000000000000000008152600401611a789061359a565b60405180910390fd5b565b6000600760009054906101000a900473ffffffffffffffffffffffffffffffffffffffff16905081600760006101000a81548173ffffffffffffffffffffffffffffffffffffffff021916908373ffffffffffffffffffffffffffffffffffffffff1602179055508173ffffffffffffffffffffffffffffffffffffffff168173ffffffffffffffffffffffffffffffffffffffff167f8be0079c531659141344cd1fd0a4f28419497f9722a3daafe3b4186f6b6457e060405160405180910390a35050565b8173ffffffffffffffffffffffffffffffffffffffff168373ffffffffffffffffffffffffffffffffffffffff161415611bb8576040517f08c379a0000000000000000000000000000000000000000000000000000000008152600401611baf90613606565b60405180910390fd5b80600560008573ffffffffffffffffffffffffffffffffffffffff1673ffffffffffffffffffffffffffffffffffffffff16815260200190815260200160002060008473ffffffffffffffffffffffffffffffffffffffff1673ffffffffffffffffffffffffffffffffffffffff16815260200190815260200160002060006101000a81548160ff0219169083151502179055508173ffffffffffffffffffffffffffffffffffffffff168373ffffffffffffffffffffffffffffffffffffffff167f17307eab39ab6107e8899845ad3d59bd9653f200f220920489ca2b5937696c3183604051611ca99190612562565b60405180910390a3505050565b611cc184848461179e565b611ccd84848484611e99565b611d0c576040517f08c379a0000000000000000000000000000000000000000000000000000000008152600401611d0390613698565b60405180910390fd5b50505050565b606060405180602001604052806000815250905090565b6060611d3482611478565b6000611d3e611d12565b90506000815111611d5e5760405180602001604052806000815250611d89565b80611d6884612030565b604051602001611d799291906132b7565b6040516020818303038152906040525b915050919050565b60008073ffffffffffffffffffffffffffffffffffffffff166002600084815260200190815260200160002060009054906101000a900473ffffffffffffffffffffffffffffffffffffffff1673ffffffffffffffffffffffffffffffffffffffff1614159050919050565b611e17828260405180602001604052806000815250612191565b5050565b611e2482611d91565b611e63576040517f08c379a0000000000000000000000000000000000000000000000000000000008152600401611e5a9061372a565b60405180910390fd5b80600660008481526020019081526020016000209080519060200190611e8a92919061240b565b505050565b505050565b505050565b6000611eba8473ffffffffffffffffffffffffffffffffffffffff166121ec565b15612023578373ffffffffffffffffffffffffffffffffffffffff1663150b7a02611ee36114c3565b8786866040518563ffffffff1660e01b8152600401611f05949392919061379f565b602060405180830381600087803b158015611f1f57600080fd5b505af1925050508015611f5057506040513d601f19601f82011682018060405250810190611f4d9190613800565b60015b611fd3573d8060008114611f80576040519150601f19603f3d011682016040523d82523d6000602084013e611f85565b606091505b50600081511415611fcb576040517f08c379a0000000000000000000000000000000000000000000000000000000008152600401611fc290613698565b60405180910390fd5b805181602001fd5b63150b7a0260e01b7bffffffffffffffffffffffffffffffffffffffffffffffffffffffff1916817bffffffffffffffffffffffffffffffffffffffffffffffffffffffff191614915050612028565b600190505b949350505050565b60606000821415612078576040518060400160405280600181526020017f3000000000000000000000000000000000000000000000000000000000000000815250905061218c565b600082905060005b600082146120aa57808061209390613125565b915050600a826120a3919061382d565b9150612080565b60008167ffffffffffffffff8111156120c6576120c5612792565b5b6040519080825280601f01601f1916602001820160405280156120f85781602001600182028036833780820191505090505b5090505b6000851461218557600182612111919061351a565b9150600a85612120919061339c565b603061212c91906130cf565b60f81b81838151811061214257612141612f2d565b5b60200101907effffffffffffffffffffffffffffffffffffffffffffffffffffffffffffff1916908160001a905350600a8561217e919061382d565b94506120fc565b8093505050505b919050565b61219b838361220f565b6121a86000848484611e99565b6121e7576040517f08c379a00000000000000000000000000000000000000000000000000000000081526004016121de90613698565b60405180910390fd5b505050565b6000808273ffffffffffffffffffffffffffffffffffffffff163b119050919050565b600073ffffffffffffffffffffffffffffffffffffffff168273ffffffffffffffffffffffffffffffffffffffff16141561227f576040517f08c379a0000000000000000000000000000000000000000000000000000000008152600401612276906138aa565b60405180910390fd5b61228881611d91565b156122c8576040517f08c379a00000000000000000000000000000000000000000000000000000000081526004016122bf90613916565b60405180910390fd5b6122d460008383611e8f565b6001600360008473ffffffffffffffffffffffffffffffffffffffff1673ffffffffffffffffffffffffffffffffffffffff168152602001908152602001600020600082825461232491906130cf565b92505081905550816002600083815260200190815260200160002060006101000a81548173ffffffffffffffffffffffffffffffffffffffff021916908373ffffffffffffffffffffffffffffffffffffffff160217905550808273ffffffffffffffffffffffffffffffffffffffff16600073ffffffffffffffffffffffffffffffffffffffff167fddf252ad1be2c89b69c2b068fc378daa952ba7f163c4a11628f55a4df523b3ef60405160405180910390a46123e560008383611e94565b5050565b6040518060600160405280600390602082028036833780820191505090505090565b82805461241790612d1c565b90600052602060002090601f0160209004810192826124395760008555612480565b82601f1061245257805160ff1916838001178555612480565b82800160010185558215612480579182015b8281111561247f578251825591602001919060010190612464565b5b50905061248d9190612491565b5090565b5b808211156124aa576000816000905550600101612492565b5090565b6000604051905090565b600080fd5b600080fd5b60007fffffffff0000000000000000000000000000000000000000000000000000000082169050919050565b6124f7816124c2565b811461250257600080fd5b50565b600081359050612514816124ee565b92915050565b6000602082840312156125305761252f6124b8565b5b600061253e84828501612505565b91505092915050565b60008115159050919050565b61255c81612547565b82525050565b60006020820190506125776000830184612553565b92915050565b600081519050919050565b600082825260208201905092915050565b60005b838110156125b757808201518184015260208101905061259c565b838111156125c6576000848401525b50505050565b6000601f19601f8301169050919050565b60006125e88261257d565b6125f28185612588565b9350612602818560208601612599565b61260b816125cc565b840191505092915050565b6000602082019050818103600083015261263081846125dd565b905092915050565b6000819050919050565b61264b81612638565b811461265657600080fd5b50565b60008135905061266881612642565b92915050565b600060208284031215612684576126836124b8565b5b600061269284828501612659565b91505092915050565b600073ffffffffffffffffffffffffffffffffffffffff82169050919050565b60006126c68261269b565b9050919050565b6126d6816126bb565b82525050565b60006020820190506126f160008301846126cd565b92915050565b612700816126bb565b811461270b57600080fd5b50565b60008135905061271d816126f7565b92915050565b6000806040838503121561273a576127396124b8565b5b60006127488582860161270e565b925050602061275985828601612659565b9150509250929050565b61276c81612638565b82525050565b60006020820190506127876000830184612763565b92915050565b600080fd5b7f4e487b7100000000000000000000000000000000000000000000000000000000600052604160045260246000fd5b6127ca826125cc565b810181811067ffffffffffffffff821117156127e9576127e8612792565b5b80604052505050565b60006127fc6124ae565b905061280882826127c1565b919050565b600067ffffffffffffffff82111561282857612827612792565b5b602082029050602081019050919050565b600080fd5b600061285161284c8461280d565b6127f2565b9050808382526020820190506020840283018581111561287457612873612839565b5b835b8181101561289d57806128898882612659565b845260208401935050602081019050612876565b5050509392505050565b600082601f8301126128bc576128bb61278d565b5b81356128cc84826020860161283e565b91505092915050565b600080604083850312156128ec576128eb6124b8565b5b60006128fa85828601612659565b925050602083013567ffffffffffffffff81111561291b5761291a6124bd565b5b612927858286016128a7565b9150509250929050565b60008060006060848603121561294a576129496124b8565b5b60006129588682870161270e565b93505060206129698682870161270e565b925050604061297a86828701612659565b9150509250925092565b600060039050919050565b600081905092915050565b6000819050919050565b6129ad81612638565b82525050565b60006129bf83836129a4565b60208301905092915050565b6000602082019050919050565b6129e181612984565b6129eb818461298f565b92506129f68261299a565b8060005b83811015612a27578151612a0e87826129b3565b9650612a19836129cb565b9250506001810190506129fa565b505050505050565b6000606082019050612a4460008301846129d8565b92915050565b600060208284031215612a6057612a5f6124b8565b5b6000612a6e8482850161270e565b91505092915050565b612a8081612547565b8114612a8b57600080fd5b50565b600081359050612a9d81612a77565b92915050565b60008060408385031215612aba57612ab96124b8565b5b6000612ac88582860161270e565b9250506020612ad985828601612a8e565b9150509250929050565b7f4e487b7100000000000000000000000000000000000000000000000000000000600052602160045260246000fd5b60038110612b2357612b22612ae3565b5b50565b6000819050612b3482612b12565b919050565b6000612b4482612b26565b9050919050565b612b5481612b39565b82525050565b6000602082019050612b6f6000830184612b4b565b92915050565b600080fd5b600067ffffffffffffffff821115612b9557612b94612792565b5b612b9e826125cc565b9050602081019050919050565b82818337600083830152505050565b6000612bcd612bc884612b7a565b6127f2565b905082815260208101848484011115612be957612be8612b75565b5b612bf4848285612bab565b509392505050565b600082601f830112612c1157612c1061278d565b5b8135612c21848260208601612bba565b91505092915050565b60008060008060808587031215612c4457612c436124b8565b5b6000612c528782880161270e565b9450506020612c638782880161270e565b9350506040612c7487828801612659565b925050606085013567ffffffffffffffff811115612c9557612c946124bd565b5b612ca187828801612bfc565b91505092959194509250565b60008060408385031215612cc457612cc36124b8565b5b6000612cd28582860161270e565b9250506020612ce38582860161270e565b9150509250929050565b7f4e487b7100000000000000000000000000000000000000000000000000000000600052602260045260246000fd5b60006002820490506001821680612d3457607f821691505b60208210811415612d4857612d47612ced565b5b50919050565b7f4552433732313a20617070726f76616c20746f2063757272656e74206f776e6560008201527f7200000000000000000000000000000000000000000000000000000000000000602082015250565b6000612daa602183612588565b9150612db582612d4e565b604082019050919050565b60006020820190508181036000830152612dd981612d9d565b9050919050565b7f4552433732313a20617070726f76652063616c6c6572206973206e6f7420746f60008201527f6b656e206f776e6572206e6f7220617070726f76656420666f7220616c6c0000602082015250565b6000612e3c603e83612588565b9150612e4782612de0565b604082019050919050565b60006020820190508181036000830152612e6b81612e2f565b9050919050565b6000604082019050612e8760008301856126cd565b612e9460208301846126cd565b9392505050565b7f4552433732313a2063616c6c6572206973206e6f7420746f6b656e206f776e6560008201527f72206e6f7220617070726f766564000000000000000000000000000000000000602082015250565b6000612ef7602e83612588565b9150612f0282612e9b565b604082019050919050565b60006020820190508181036000830152612f2681612eea565b9050919050565b7f4e487b7100000000000000000000000000000000000000000000000000000000600052603260045260246000fd5b600081905092915050565b50565b6000612f77600083612f5c565b9150612f8282612f67565b600082019050919050565b6000612f9882612f6a565b9150819050919050565b7f4552433732313a20696e76616c696420746f6b656e2049440000000000000000600082015250565b6000612fd8601883612588565b9150612fe382612fa2565b602082019050919050565b6000602082019050818103600083015261300781612fcb565b9050919050565b7f4552433732313a2061646472657373207a65726f206973206e6f74206120766160008201527f6c6964206f776e65720000000000000000000000000000000000000000000000602082015250565b600061306a602983612588565b91506130758261300e565b604082019050919050565b600060208201905081810360008301526130998161305d565b9050919050565b7f4e487b7100000000000000000000000000000000000000000000000000000000600052601160045260246000fd5b60006130da82612638565b91506130e583612638565b9250827fffffffffffffffffffffffffffffffffffffffffffffffffffffffffffffffff0382111561311a576131196130a0565b5b828201905092915050565b600061313082612638565b91507fffffffffffffffffffffffffffffffffffffffffffffffffffffffffffffffff821415613163576131626130a0565b5b600182019050919050565b6000819050919050565b6131818161316e565b82525050565b600067ffffffffffffffff82169050919050565b6131a481613187565b82525050565b600061ffff82169050919050565b6131c1816131aa565b82525050565b600063ffffffff82169050919050565b6131e0816131c7565b82525050565b600060a0820190506131fb6000830188613178565b613208602083018761319b565b61321560408301866131b8565b61322260608301856131d7565b61322f60808301846131d7565b9695505050505050565b60008151905061324881612642565b92915050565b600060208284031215613264576132636124b8565b5b600061327284828501613239565b91505092915050565b600081905092915050565b60006132918261257d565b61329b818561327b565b93506132ab818560208601612599565b80840191505092915050565b60006132c38285613286565b91506132cf8284613286565b91508190509392505050565b7f4f776e61626c653a206e6577206f776e657220697320746865207a65726f206160008201527f6464726573730000000000000000000000000000000000000000000000000000602082015250565b6000613337602683612588565b9150613342826132db565b604082019050919050565b600060208201905081810360008301526133668161332a565b9050919050565b7f4e487b7100000000000000000000000000000000000000000000000000000000600052601260045260246000fd5b60006133a782612638565b91506133b283612638565b9250826133c2576133c161336d565b5b828206905092915050565b60006040820190506133e26000830185612b4b565b6133ef60208301846126cd565b9392505050565b7f4552433732313a207472616e736665722066726f6d20696e636f72726563742060008201527f6f776e6572000000000000000000000000000000000000000000000000000000602082015250565b6000613452602583612588565b915061345d826133f6565b604082019050919050565b6000602082019050818103600083015261348181613445565b9050919050565b7f4552433732313a207472616e7366657220746f20746865207a65726f2061646460008201527f7265737300000000000000000000000000000000000000000000000000000000602082015250565b60006134e4602483612588565b91506134ef82613488565b604082019050919050565b60006020820190508181036000830152613513816134d7565b9050919050565b600061352582612638565b915061353083612638565b925082821015613543576135426130a0565b5b828203905092915050565b7f4f776e61626c653a2063616c6c6572206973206e6f7420746865206f776e6572600082015250565b6000613584602083612588565b915061358f8261354e565b602082019050919050565b600060208201905081810360008301526135b381613577565b9050919050565b7f4552433732313a20617070726f766520746f2063616c6c657200000000000000600082015250565b60006135f0601983612588565b91506135fb826135ba565b602082019050919050565b6000602082019050818103600083015261361f816135e3565b9050919050565b7f4552433732313a207472616e7366657220746f206e6f6e20455243373231526560008201527f63656976657220696d706c656d656e7465720000000000000000000000000000602082015250565b6000613682603283612588565b915061368d82613626565b604082019050919050565b600060208201905081810360008301526136b181613675565b9050919050565b7f45524337323155524953746f726167653a2055524920736574206f66206e6f6e60008201527f6578697374656e7420746f6b656e000000000000000000000000000000000000602082015250565b6000613714602e83612588565b915061371f826136b8565b604082019050919050565b6000602082019050818103600083015261374381613707565b9050919050565b600081519050919050565b600082825260208201905092915050565b60006137718261374a565b61377b8185613755565b935061378b818560208601612599565b613794816125cc565b840191505092915050565b60006080820190506137b460008301876126cd565b6137c160208301866126cd565b6137ce6040830185612763565b81810360608301526137e08184613766565b905095945050505050565b6000815190506137fa816124ee565b92915050565b600060208284031215613816576138156124b8565b5b6000613824848285016137eb565b91505092915050565b600061383882612638565b915061384383612638565b9250826138535761385261336d565b5b828204905092915050565b7f4552433732313a206d696e7420746f20746865207a65726f2061646472657373600082015250565b6000613894602083612588565b915061389f8261385e565b602082019050919050565b600060208201905081810360008301526138c381613887565b9050919050565b7f4552433732313a20746f6b656e20616c7265616479206d696e74656400000000600082015250565b6000613900601c83612588565b915061390b826138ca565b602082019050919050565b6000602082019050818103600083015261392f816138f3565b905091905056fea2646970667358221220657d73e4f3eb21a190bf05dc4785db94d7b2c91b10274d113f33b77d6e91e98364736f6c63430008090033",
  "linkReferences": {},
  "deployedLinkReferences": {}
}