{
  "_format": "hh-sol-artifact-1",
  "contractName": "RandomIpfsNft",
  "sourceName": "contracts/RandomipfsNft.sol",
  "abi": [
    {
      "inputs": [
        {
          "internalType": "address",
          "name": "vrfCoordinatorV2",
          "type": "address"
        },
        {
          "internalType": "uint64",
          "name": "subscriptionId",
          "type": "uint64"
        },
        {
          "internalType": "bytes32",
          "name": "gasLane",
          "type": "bytes32"
        },
        {
          "internalType": "uint32",
          "name": "callbackGasLimit",
          "type": "uint32"
        }
      ],
      "stateMutability": "nonpayable",
      "type": "constructor"
    },
    {
      "inputs": [
        {
          "internalType": "address",
          "name": "have",
          "type": "address"
        },
        {
          "internalType": "address",
          "name": "want",
          "type": "address"
        }
      ],
      "name": "OnlyCoordinatorCanFulfill",
      "type": "error"
    },
    {
      "anonymous": false,
      "inputs": [
        {
          "indexed": true,
          "internalType": "address",
          "name": "owner",
          "type": "address"
        },
        {
          "indexed": true,
          "internalType": "address",
          "name": "approved",
          "type": "address"
        },
        {
          "indexed": true,
          "internalType": "uint256",
          "name": "tokenId",
          "type": "uint256"
        }
      ],
      "name": "Approval",
      "type": "event"
    },
    {
      "anonymous": false,
      "inputs": [
        {
          "indexed": true,
          "internalType": "address",
          "name": "owner",
          "type": "address"
        },
        {
          "indexed": true,
          "internalType": "address",
          "name": "operator",
          "type": "address"
        },
        {
          "indexed": false,
          "internalType": "bool",
          "name": "approved",
          "type": "bool"
        }
      ],
      "name": "ApprovalForAll",
      "type": "event"
    },
    {
      "anonymous": false,
      "inputs": [
        {
          "indexed": true,
          "internalType": "address",
          "name": "from",
          "type": "address"
        },
        {
          "indexed": true,
          "internalType": "address",
          "name": "to",
          "type": "address"
        },
        {
          "indexed": true,
          "internalType": "uint256",
          "name": "tokenId",
          "type": "uint256"
        }
      ],
      "name": "Transfer",
      "type": "event"
    },
    {
      "inputs": [
        {
          "internalType": "address",
          "name": "to",
          "type": "address"
        },
        {
          "internalType": "uint256",
          "name": "tokenId",
          "type": "uint256"
        }
      ],
      "name": "approve",
      "outputs": [],
      "stateMutability": "nonpayable",
      "type": "function"
    },
    {
      "inputs": [
        {
          "internalType": "address",
          "name": "owner",
          "type": "address"
        }
      ],
      "name": "balanceOf",
      "outputs": [
        {
          "internalType": "uint256",
          "name": "",
          "type": "uint256"
        }
      ],
      "stateMutability": "view",
      "type": "function"
    },
    {
      "inputs": [
        {
          "internalType": "uint256",
          "name": "tokenId",
          "type": "uint256"
        }
      ],
      "name": "getApproved",
      "outputs": [
        {
          "internalType": "address",
          "name": "",
          "type": "address"
        }
      ],
      "stateMutability": "view",
      "type": "function"
    },
    {
      "inputs": [
        {
          "internalType": "address",
          "name": "owner",
          "type": "address"
        },
        {
          "internalType": "address",
          "name": "operator",
          "type": "address"
        }
      ],
      "name": "isApprovedForAll",
      "outputs": [
        {
          "internalType": "bool",
          "name": "",
          "type": "bool"
        }
      ],
      "stateMutability": "view",
      "type": "function"
    },
    {
      "inputs": [],
      "name": "name",
      "outputs": [
        {
          "internalType": "string",
          "name": "",
          "type": "string"
        }
      ],
      "stateMutability": "view",
      "type": "function"
    },
    {
      "inputs": [
        {
          "internalType": "uint256",
          "name": "tokenId",
          "type": "uint256"
        }
      ],
      "name": "ownerOf",
      "outputs": [
        {
          "internalType": "address",
          "name": "",
          "type": "address"
        }
      ],
      "stateMutability": "view",
      "type": "function"
    },
    {
      "inputs": [
        {
          "internalType": "uint256",
          "name": "requestId",
          "type": "uint256"
        },
        {
          "internalType": "uint256[]",
          "name": "randomWords",
          "type": "uint256[]"
        }
      ],
      "name": "rawFulfillRandomWords",
      "outputs": [],
      "stateMutability": "nonpayable",
      "type": "function"
    },
    {
      "inputs": [],
      "name": "requestNft",
      "outputs": [
        {
          "internalType": "uint256",
          "name": "requestId",
          "type": "uint256"
        }
      ],
      "stateMutability": "nonpayable",
      "type": "function"
    },
    {
      "inputs": [
        {
          "internalType": "uint256",
          "name": "",
          "type": "uint256"
        }
      ],
      "name": "s_requestIdToSender",
      "outputs": [
        {
          "internalType": "address",
          "name": "",
          "type": "address"
        }
      ],
      "stateMutability": "view",
      "type": "function"
    },
    {
      "inputs": [],
      "name": "s_tokenCounter",
      "outputs": [
        {
          "internalType": "uint256",
          "name": "",
          "type": "uint256"
        }
      ],
      "stateMutability": "view",
      "type": "function"
    },
    {
      "inputs": [
        {
          "internalType": "address",
          "name": "from",
          "type": "address"
        },
        {
          "internalType": "address",
          "name": "to",
          "type": "address"
        },
        {
          "internalType": "uint256",
          "name": "tokenId",
          "type": "uint256"
        }
      ],
      "name": "safeTransferFrom",
      "outputs": [],
      "stateMutability": "nonpayable",
      "type": "function"
    },
    {
      "inputs": [
        {
          "internalType": "address",
          "name": "from",
          "type": "address"
        },
        {
          "internalType": "address",
          "name": "to",
          "type": "address"
        },
        {
          "internalType": "uint256",
          "name": "tokenId",
          "type": "uint256"
        },
        {
          "internalType": "bytes",
          "name": "data",
          "type": "bytes"
        }
      ],
      "name": "safeTransferFrom",
      "outputs": [],
      "stateMutability": "nonpayable",
      "type": "function"
    },
    {
      "inputs": [
        {
          "internalType": "address",
          "name": "operator",
          "type": "address"
        },
        {
          "internalType": "bool",
          "name": "approved",
          "type": "bool"
        }
      ],
      "name": "setApprovalForAll",
      "outputs": [],
      "stateMutability": "nonpayable",
      "type": "function"
    },
    {
      "inputs": [
        {
          "internalType": "bytes4",
          "name": "interfaceId",
          "type": "bytes4"
        }
      ],
      "name": "supportsInterface",
      "outputs": [
        {
          "internalType": "bool",
          "name": "",
          "type": "bool"
        }
      ],
      "stateMutability": "view",
      "type": "function"
    },
    {
      "inputs": [],
      "name": "symbol",
      "outputs": [
        {
          "internalType": "string",
          "name": "",
          "type": "string"
        }
      ],
      "stateMutability": "view",
      "type": "function"
    },
    {
      "inputs": [
        {
          "internalType": "uint256",
          "name": "",
          "type": "uint256"
        }
      ],
      "name": "tokenURI",
      "outputs": [
        {
          "internalType": "string",
          "name": "",
          "type": "string"
        }
      ],
      "stateMutability": "view",
      "type": "function"
    },
    {
      "inputs": [
        {
          "internalType": "address",
          "name": "from",
          "type": "address"
        },
        {
          "internalType": "address",
          "name": "to",
          "type": "address"
        },
        {
          "internalType": "uint256",
          "name": "tokenId",
          "type": "uint256"
        }
      ],
      "name": "transferFrom",
      "outputs": [],
      "stateMutability": "nonpayable",
      "type": "function"
    }
  ],
  "bytecode": "0x6101206040523480156200001257600080fd5b5060405162002bd638038062002bd6833981810160405281019062000038919062000360565b6040518060400160405280600f81526020017f52616e646f6d2049504653204e465400000000000000000000000000000000008152506040518060400160405280600381526020017f52494e0000000000000000000000000000000000000000000000000000000000815250858073ffffffffffffffffffffffffffffffffffffffff1660808173ffffffffffffffffffffffffffffffffffffffff1681525050508160009080519060200190620000f292919062000185565b5080600190805190602001906200010b92919062000185565b5050508373ffffffffffffffffffffffffffffffffffffffff1660a08173ffffffffffffffffffffffffffffffffffffffff16815250508267ffffffffffffffff1660c08167ffffffffffffffff16815250508160e081815250508063ffffffff166101008163ffffffff16815250505050505062000437565b828054620001939062000401565b90600052602060002090601f016020900481019282620001b7576000855562000203565b82601f10620001d257805160ff191683800117855562000203565b8280016001018555821562000203579182015b8281111562000202578251825591602001919060010190620001e5565b5b50905062000212919062000216565b5090565b5b808211156200023157600081600090555060010162000217565b5090565b600080fd5b600073ffffffffffffffffffffffffffffffffffffffff82169050919050565b600062000267826200023a565b9050919050565b62000279816200025a565b81146200028557600080fd5b50565b60008151905062000299816200026e565b92915050565b600067ffffffffffffffff82169050919050565b620002be816200029f565b8114620002ca57600080fd5b50565b600081519050620002de81620002b3565b92915050565b6000819050919050565b620002f981620002e4565b81146200030557600080fd5b50565b6000815190506200031981620002ee565b92915050565b600063ffffffff82169050919050565b6200033a816200031f565b81146200034657600080fd5b50565b6000815190506200035a816200032f565b92915050565b600080600080608085870312156200037d576200037c62000235565b5b60006200038d8782880162000288565b9450506020620003a087828801620002cd565b9350506040620003b38782880162000308565b9250506060620003c68782880162000349565b91505092959194509250565b7f4e487b7100000000000000000000000000000000000000000000000000000000600052602260045260246000fd5b600060028204905060018216806200041a57607f821691505b60208210811415620004315762000430620003d2565b5b50919050565b60805160a05160c05160e05161010051612753620004836000396000610a6101526000610a1d01526000610a3e015260006109e101526000818161065a01526106ae01526127536000f3fe608060405234801561001057600080fd5b506004361061010b5760003560e01c80636352211e116100a2578063a36f573b11610071578063a36f573b146102b6578063aa152491146102e6578063b88d4fde14610304578063c87b56dd14610320578063e985e9c5146103505761010b565b80636352211e1461021c57806370a082311461024c57806395d89b411461027c578063a22cb4651461029a5761010b565b80630b21a83b116100de5780630b21a83b146101aa5780631fe543e3146101c857806323b872dd146101e457806342842e0e146102005761010b565b806301ffc9a71461011057806306fdde0314610140578063081812fc1461015e578063095ea7b31461018e575b600080fd5b61012a600480360381019061012591906117c1565b610380565b6040516101379190611809565b60405180910390f35b610148610462565b60405161015591906118bd565b60405180910390f35b61017860048036038101906101739190611915565b6104f4565b6040516101859190611983565b60405180910390f35b6101a860048036038101906101a391906119ca565b61053a565b005b6101b2610652565b6040516101bf9190611a19565b60405180910390f35b6101e260048036038101906101dd9190611b7c565b610658565b005b6101fe60048036038101906101f99190611bd8565b610718565b005b61021a60048036038101906102159190611bd8565b610778565b005b61023660048036038101906102319190611915565b610798565b6040516102439190611983565b60405180910390f35b61026660048036038101906102619190611c2b565b61084a565b6040516102739190611a19565b60405180910390f35b610284610902565b60405161029191906118bd565b60405180910390f35b6102b460048036038101906102af9190611c84565b610994565b005b6102d060048036038101906102cb9190611915565b6109aa565b6040516102dd9190611983565b60405180910390f35b6102ee6109dd565b6040516102fb9190611a19565b60405180910390f35b61031e60048036038101906103199190611d79565b610b4b565b005b61033a60048036038101906103359190611915565b610bad565b60405161034791906118bd565b60405180910390f35b61036a60048036038101906103659190611dfc565b610bb4565b6040516103779190611809565b60405180910390f35b60007f80ac58cd000000000000000000000000000000000000000000000000000000007bffffffffffffffffffffffffffffffffffffffffffffffffffffffff1916827bffffffffffffffffffffffffffffffffffffffffffffffffffffffff1916148061044b57507f5b5e139f000000000000000000000000000000000000000000000000000000007bffffffffffffffffffffffffffffffffffffffffffffffffffffffff1916827bffffffffffffffffffffffffffffffffffffffffffffffffffffffff1916145b8061045b575061045a82610c48565b5b9050919050565b60606000805461047190611e6b565b80601f016020809104026020016040519081016040528092919081815260200182805461049d90611e6b565b80156104ea5780601f106104bf576101008083540402835291602001916104ea565b820191906000526020600020905b8154815290600101906020018083116104cd57829003601f168201915b5050505050905090565b60006104ff82610cb2565b6004600083815260200190815260200160002060009054906101000a900473ffffffffffffffffffffffffffffffffffffffff169050919050565b600061054582610798565b90508073ffffffffffffffffffffffffffffffffffffffff168373ffffffffffffffffffffffffffffffffffffffff1614156105b6576040517f08c379a00000000000000000000000000000000000000000000000000000000081526004016105ad90611f0f565b60405180910390fd5b8073ffffffffffffffffffffffffffffffffffffffff166105d5610cfd565b73ffffffffffffffffffffffffffffffffffffffff1614806106045750610603816105fe610cfd565b610bb4565b5b610643576040517f08c379a000000000000000000000000000000000000000000000000000000000815260040161063a90611fa1565b60405180910390fd5b61064d8383610d05565b505050565b60075481565b7f000000000000000000000000000000000000000000000000000000000000000073ffffffffffffffffffffffffffffffffffffffff163373ffffffffffffffffffffffffffffffffffffffff161461070a57337f00000000000000000000000000000000000000000000000000000000000000006040517f1cf993f4000000000000000000000000000000000000000000000000000000008152600401610701929190611fc1565b60405180910390fd5b6107148282610dbe565b5050565b610729610723610cfd565b82610e0d565b610768576040517f08c379a000000000000000000000000000000000000000000000000000000000815260040161075f9061205c565b60405180910390fd5b610773838383610ea2565b505050565b61079383838360405180602001604052806000815250610b4b565b505050565b6000806002600084815260200190815260200160002060009054906101000a900473ffffffffffffffffffffffffffffffffffffffff169050600073ffffffffffffffffffffffffffffffffffffffff168173ffffffffffffffffffffffffffffffffffffffff161415610841576040517f08c379a0000000000000000000000000000000000000000000000000000000008152600401610838906120c8565b60405180910390fd5b80915050919050565b60008073ffffffffffffffffffffffffffffffffffffffff168273ffffffffffffffffffffffffffffffffffffffff1614156108bb576040517f08c379a00000000000000000000000000000000000000000000000000000000081526004016108b29061215a565b60405180910390fd5b600360008373ffffffffffffffffffffffffffffffffffffffff1673ffffffffffffffffffffffffffffffffffffffff168152602001908152602001600020549050919050565b60606001805461091190611e6b565b80601f016020809104026020016040519081016040528092919081815260200182805461093d90611e6b565b801561098a5780601f1061095f5761010080835404028352916020019161098a565b820191906000526020600020905b81548152906001019060200180831161096d57829003601f168201915b5050505050905090565b6109a661099f610cfd565b8383611109565b5050565b60066020528060005260406000206000915054906101000a900473ffffffffffffffffffffffffffffffffffffffff1681565b60007f000000000000000000000000000000000000000000000000000000000000000073ffffffffffffffffffffffffffffffffffffffff16635d3b1d307f00000000000000000000000000000000000000000000000000000000000000007f000000000000000000000000000000000000000000000000000000000000000060037f000000000000000000000000000000000000000000000000000000000000000060016040518663ffffffff1660e01b8152600401610aa29594939291906121f2565b602060405180830381600087803b158015610abc57600080fd5b505af1158015610ad0573d6000803e3d6000fd5b505050506040513d601f19601f82011682018060405250810190610af4919061225a565b9050336006600083815260200190815260200160002060006101000a81548173ffffffffffffffffffffffffffffffffffffffff021916908373ffffffffffffffffffffffffffffffffffffffff16021790555090565b610b5c610b56610cfd565b83610e0d565b610b9b576040517f08c379a0000000000000000000000000000000000000000000000000000000008152600401610b929061205c565b60405180910390fd5b610ba784848484611276565b50505050565b6060919050565b6000600560008473ffffffffffffffffffffffffffffffffffffffff1673ffffffffffffffffffffffffffffffffffffffff16815260200190815260200160002060008373ffffffffffffffffffffffffffffffffffffffff1673ffffffffffffffffffffffffffffffffffffffff16815260200190815260200160002060009054906101000a900460ff16905092915050565b60007f01ffc9a7000000000000000000000000000000000000000000000000000000007bffffffffffffffffffffffffffffffffffffffffffffffffffffffff1916827bffffffffffffffffffffffffffffffffffffffffffffffffffffffff1916149050919050565b610cbb816112d2565b610cfa576040517f08c379a0000000000000000000000000000000000000000000000000000000008152600401610cf1906120c8565b60405180910390fd5b50565b600033905090565b816004600083815260200190815260200160002060006101000a81548173ffffffffffffffffffffffffffffffffffffffff021916908373ffffffffffffffffffffffffffffffffffffffff160217905550808273ffffffffffffffffffffffffffffffffffffffff16610d7883610798565b73ffffffffffffffffffffffffffffffffffffffff167f8c5be1e5ebec7d5bd14f71427d1e84f3dd0314c0f7b2291e5b200ac8c7c3b92560405160405180910390a45050565b60006006600084815260200190815260200160002060009054906101000a900473ffffffffffffffffffffffffffffffffffffffff16905060006007549050610e07828261133e565b50505050565b600080610e1983610798565b90508073ffffffffffffffffffffffffffffffffffffffff168473ffffffffffffffffffffffffffffffffffffffff161480610e5b5750610e5a8185610bb4565b5b80610e9957508373ffffffffffffffffffffffffffffffffffffffff16610e81846104f4565b73ffffffffffffffffffffffffffffffffffffffff16145b91505092915050565b8273ffffffffffffffffffffffffffffffffffffffff16610ec282610798565b73ffffffffffffffffffffffffffffffffffffffff1614610f18576040517f08c379a0000000000000000000000000000000000000000000000000000000008152600401610f0f906122f9565b60405180910390fd5b600073ffffffffffffffffffffffffffffffffffffffff168273ffffffffffffffffffffffffffffffffffffffff161415610f88576040517f08c379a0000000000000000000000000000000000000000000000000000000008152600401610f7f9061238b565b60405180910390fd5b610f9383838361135c565b610f9e600082610d05565b6001600360008573ffffffffffffffffffffffffffffffffffffffff1673ffffffffffffffffffffffffffffffffffffffff1681526020019081526020016000206000828254610fee91906123da565b925050819055506001600360008473ffffffffffffffffffffffffffffffffffffffff1673ffffffffffffffffffffffffffffffffffffffff1681526020019081526020016000206000828254611045919061240e565b92505081905550816002600083815260200190815260200160002060006101000a81548173ffffffffffffffffffffffffffffffffffffffff021916908373ffffffffffffffffffffffffffffffffffffffff160217905550808273ffffffffffffffffffffffffffffffffffffffff168473ffffffffffffffffffffffffffffffffffffffff167fddf252ad1be2c89b69c2b068fc378daa952ba7f163c4a11628f55a4df523b3ef60405160405180910390a4611104838383611361565b505050565b8173ffffffffffffffffffffffffffffffffffffffff168373ffffffffffffffffffffffffffffffffffffffff161415611178576040517f08c379a000000000000000000000000000000000000000000000000000000000815260040161116f906124b0565b60405180910390fd5b80600560008573ffffffffffffffffffffffffffffffffffffffff1673ffffffffffffffffffffffffffffffffffffffff16815260200190815260200160002060008473ffffffffffffffffffffffffffffffffffffffff1673ffffffffffffffffffffffffffffffffffffffff16815260200190815260200160002060006101000a81548160ff0219169083151502179055508173ffffffffffffffffffffffffffffffffffffffff168373ffffffffffffffffffffffffffffffffffffffff167f17307eab39ab6107e8899845ad3d59bd9653f200f220920489ca2b5937696c31836040516112699190611809565b60405180910390a3505050565b611281848484610ea2565b61128d84848484611366565b6112cc576040517f08c379a00000000000000000000000000000000000000000000000000000000081526004016112c390612542565b60405180910390fd5b50505050565b60008073ffffffffffffffffffffffffffffffffffffffff166002600084815260200190815260200160002060009054906101000a900473ffffffffffffffffffffffffffffffffffffffff1673ffffffffffffffffffffffffffffffffffffffff1614159050919050565b6113588282604051806020016040528060008152506114fd565b5050565b505050565b505050565b60006113878473ffffffffffffffffffffffffffffffffffffffff16611558565b156114f0578373ffffffffffffffffffffffffffffffffffffffff1663150b7a026113b0610cfd565b8786866040518563ffffffff1660e01b81526004016113d294939291906125b7565b602060405180830381600087803b1580156113ec57600080fd5b505af192505050801561141d57506040513d601f19601f8201168201806040525081019061141a9190612618565b60015b6114a0573d806000811461144d576040519150601f19603f3d011682016040523d82523d6000602084013e611452565b606091505b50600081511415611498576040517f08c379a000000000000000000000000000000000000000000000000000000000815260040161148f90612542565b60405180910390fd5b805181602001fd5b63150b7a0260e01b7bffffffffffffffffffffffffffffffffffffffffffffffffffffffff1916817bffffffffffffffffffffffffffffffffffffffffffffffffffffffff1916149150506114f5565b600190505b949350505050565b611507838361157b565b6115146000848484611366565b611553576040517f08c379a000000000000000000000000000000000000000000000000000000000815260040161154a90612542565b60405180910390fd5b505050565b6000808273ffffffffffffffffffffffffffffffffffffffff163b119050919050565b600073ffffffffffffffffffffffffffffffffffffffff168273ffffffffffffffffffffffffffffffffffffffff1614156115eb576040517f08c379a00000000000000000000000000000000000000000000000000000000081526004016115e290612691565b60405180910390fd5b6115f4816112d2565b15611634576040517f08c379a000000000000000000000000000000000000000000000000000000000815260040161162b906126fd565b60405180910390fd5b6116406000838361135c565b6001600360008473ffffffffffffffffffffffffffffffffffffffff1673ffffffffffffffffffffffffffffffffffffffff1681526020019081526020016000206000828254611690919061240e565b92505081905550816002600083815260200190815260200160002060006101000a81548173ffffffffffffffffffffffffffffffffffffffff021916908373ffffffffffffffffffffffffffffffffffffffff160217905550808273ffffffffffffffffffffffffffffffffffffffff16600073ffffffffffffffffffffffffffffffffffffffff167fddf252ad1be2c89b69c2b068fc378daa952ba7f163c4a11628f55a4df523b3ef60405160405180910390a461175160008383611361565b5050565b6000604051905090565b600080fd5b600080fd5b60007fffffffff0000000000000000000000000000000000000000000000000000000082169050919050565b61179e81611769565b81146117a957600080fd5b50565b6000813590506117bb81611795565b92915050565b6000602082840312156117d7576117d661175f565b5b60006117e5848285016117ac565b91505092915050565b60008115159050919050565b611803816117ee565b82525050565b600060208201905061181e60008301846117fa565b92915050565b600081519050919050565b600082825260208201905092915050565b60005b8381101561185e578082015181840152602081019050611843565b8381111561186d576000848401525b50505050565b6000601f19601f8301169050919050565b600061188f82611824565b611899818561182f565b93506118a9818560208601611840565b6118b281611873565b840191505092915050565b600060208201905081810360008301526118d78184611884565b905092915050565b6000819050919050565b6118f2816118df565b81146118fd57600080fd5b50565b60008135905061190f816118e9565b92915050565b60006020828403121561192b5761192a61175f565b5b600061193984828501611900565b91505092915050565b600073ffffffffffffffffffffffffffffffffffffffff82169050919050565b600061196d82611942565b9050919050565b61197d81611962565b82525050565b60006020820190506119986000830184611974565b92915050565b6119a781611962565b81146119b257600080fd5b50565b6000813590506119c48161199e565b92915050565b600080604083850312156119e1576119e061175f565b5b60006119ef858286016119b5565b9250506020611a0085828601611900565b9150509250929050565b611a13816118df565b82525050565b6000602082019050611a2e6000830184611a0a565b92915050565b600080fd5b7f4e487b7100000000000000000000000000000000000000000000000000000000600052604160045260246000fd5b611a7182611873565b810181811067ffffffffffffffff82111715611a9057611a8f611a39565b5b80604052505050565b6000611aa3611755565b9050611aaf8282611a68565b919050565b600067ffffffffffffffff821115611acf57611ace611a39565b5b602082029050602081019050919050565b600080fd5b6000611af8611af384611ab4565b611a99565b90508083825260208201905060208402830185811115611b1b57611b1a611ae0565b5b835b81811015611b445780611b308882611900565b845260208401935050602081019050611b1d565b5050509392505050565b600082601f830112611b6357611b62611a34565b5b8135611b73848260208601611ae5565b91505092915050565b60008060408385031215611b9357611b9261175f565b5b6000611ba185828601611900565b925050602083013567ffffffffffffffff811115611bc257611bc1611764565b5b611bce85828601611b4e565b9150509250929050565b600080600060608486031215611bf157611bf061175f565b5b6000611bff868287016119b5565b9350506020611c10868287016119b5565b9250506040611c2186828701611900565b9150509250925092565b600060208284031215611c4157611c4061175f565b5b6000611c4f848285016119b5565b91505092915050565b611c61816117ee565b8114611c6c57600080fd5b50565b600081359050611c7e81611c58565b92915050565b60008060408385031215611c9b57611c9a61175f565b5b6000611ca9858286016119b5565b9250506020611cba85828601611c6f565b9150509250929050565b600080fd5b600067ffffffffffffffff821115611ce457611ce3611a39565b5b611ced82611873565b9050602081019050919050565b82818337600083830152505050565b6000611d1c611d1784611cc9565b611a99565b905082815260208101848484011115611d3857611d37611cc4565b5b611d43848285611cfa565b509392505050565b600082601f830112611d6057611d5f611a34565b5b8135611d70848260208601611d09565b91505092915050565b60008060008060808587031215611d9357611d9261175f565b5b6000611da1878288016119b5565b9450506020611db2878288016119b5565b9350506040611dc387828801611900565b925050606085013567ffffffffffffffff811115611de457611de3611764565b5b611df087828801611d4b565b91505092959194509250565b60008060408385031215611e1357611e1261175f565b5b6000611e21858286016119b5565b9250506020611e32858286016119b5565b9150509250929050565b7f4e487b7100000000000000000000000000000000000000000000000000000000600052602260045260246000fd5b60006002820490506001821680611e8357607f821691505b60208210811415611e9757611e96611e3c565b5b50919050565b7f4552433732313a20617070726f76616c20746f2063757272656e74206f776e6560008201527f7200000000000000000000000000000000000000000000000000000000000000602082015250565b6000611ef960218361182f565b9150611f0482611e9d565b604082019050919050565b60006020820190508181036000830152611f2881611eec565b9050919050565b7f4552433732313a20617070726f76652063616c6c6572206973206e6f7420746f60008201527f6b656e206f776e6572206e6f7220617070726f76656420666f7220616c6c0000602082015250565b6000611f8b603e8361182f565b9150611f9682611f2f565b604082019050919050565b60006020820190508181036000830152611fba81611f7e565b9050919050565b6000604082019050611fd66000830185611974565b611fe36020830184611974565b9392505050565b7f4552433732313a2063616c6c6572206973206e6f7420746f6b656e206f776e6560008201527f72206e6f7220617070726f766564000000000000000000000000000000000000602082015250565b6000612046602e8361182f565b915061205182611fea565b604082019050919050565b6000602082019050818103600083015261207581612039565b9050919050565b7f4552433732313a20696e76616c696420746f6b656e2049440000000000000000600082015250565b60006120b260188361182f565b91506120bd8261207c565b602082019050919050565b600060208201905081810360008301526120e1816120a5565b9050919050565b7f4552433732313a2061646472657373207a65726f206973206e6f74206120766160008201527f6c6964206f776e65720000000000000000000000000000000000000000000000602082015250565b600061214460298361182f565b915061214f826120e8565b604082019050919050565b6000602082019050818103600083015261217381612137565b9050919050565b6000819050919050565b61218d8161217a565b82525050565b600067ffffffffffffffff82169050919050565b6121b081612193565b82525050565b600061ffff82169050919050565b6121cd816121b6565b82525050565b600063ffffffff82169050919050565b6121ec816121d3565b82525050565b600060a0820190506122076000830188612184565b61221460208301876121a7565b61222160408301866121c4565b61222e60608301856121e3565b61223b60808301846121e3565b9695505050505050565b600081519050612254816118e9565b92915050565b6000602082840312156122705761226f61175f565b5b600061227e84828501612245565b91505092915050565b7f4552433732313a207472616e736665722066726f6d20696e636f72726563742060008201527f6f776e6572000000000000000000000000000000000000000000000000000000602082015250565b60006122e360258361182f565b91506122ee82612287565b604082019050919050565b60006020820190508181036000830152612312816122d6565b9050919050565b7f4552433732313a207472616e7366657220746f20746865207a65726f2061646460008201527f7265737300000000000000000000000000000000000000000000000000000000602082015250565b600061237560248361182f565b915061238082612319565b604082019050919050565b600060208201905081810360008301526123a481612368565b9050919050565b7f4e487b7100000000000000000000000000000000000000000000000000000000600052601160045260246000fd5b60006123e5826118df565b91506123f0836118df565b925082821015612403576124026123ab565b5b828203905092915050565b6000612419826118df565b9150612424836118df565b9250827fffffffffffffffffffffffffffffffffffffffffffffffffffffffffffffffff03821115612459576124586123ab565b5b828201905092915050565b7f4552433732313a20617070726f766520746f2063616c6c657200000000000000600082015250565b600061249a60198361182f565b91506124a582612464565b602082019050919050565b600060208201905081810360008301526124c98161248d565b9050919050565b7f4552433732313a207472616e7366657220746f206e6f6e20455243373231526560008201527f63656976657220696d706c656d656e7465720000000000000000000000000000602082015250565b600061252c60328361182f565b9150612537826124d0565b604082019050919050565b6000602082019050818103600083015261255b8161251f565b9050919050565b600081519050919050565b600082825260208201905092915050565b600061258982612562565b612593818561256d565b93506125a3818560208601611840565b6125ac81611873565b840191505092915050565b60006080820190506125cc6000830187611974565b6125d96020830186611974565b6125e66040830185611a0a565b81810360608301526125f8818461257e565b905095945050505050565b60008151905061261281611795565b92915050565b60006020828403121561262e5761262d61175f565b5b600061263c84828501612603565b91505092915050565b7f4552433732313a206d696e7420746f20746865207a65726f2061646472657373600082015250565b600061267b60208361182f565b915061268682612645565b602082019050919050565b600060208201905081810360008301526126aa8161266e565b9050919050565b7f4552433732313a20746f6b656e20616c7265616479206d696e74656400000000600082015250565b60006126e7601c8361182f565b91506126f2826126b1565b602082019050919050565b60006020820190508181036000830152612716816126da565b905091905056fea2646970667358221220625839434ef7ab44eccc61eddb6b092f761eecf1791a0dac3e2a58700bdfa9cc64736f6c63430008090033",
  "linkReferences": {},
  "deployedLinkReferences": {}
}